:020000040800F2
:10000000C8050020450100080329000885200008D4
:1000100001290008CD0A0008DF2C000800000000BC
:10002000000000000000000000000000C5290008DA
:10003000CF0A00080000000031290008C729000885
:100040005F0100085F0100085F0100085F01000810
:100050005F0100085F0100085F0100085F01000800
:100060005F0100085F010008E10A00085F01000865
:100070005F0100085F0100085F0100085F010008E0
:100080005F0100085F0100085F0100085F010008D0
:100090005F0100085F0100085F0100085F010008C0
:1000A0005F0100085F0100085F0100085F010008B0
:1000B0005F0100085F0100085F0100085F010008A0
:1000C0005F0100085F0100085F0100085F01000890
:1000D0005F0100085F0100085F0100085F01000880
:1000E0005F0100085F0100085F0100085F01000870
:1000F0005F0100085F0100085F0100085F01000860
:100100005F0100085F0100085F0100085F0100084F
:100110005F0100085F0100085F0100085F0100083F
:100120005F0100085F0100085F0100085F0100082F
:10013000DFF80CD000F05AFC0048004719400008D6
:10014000C80500200648804706480047FEE7FEE74E
:10015000FEE7FEE7FEE7FEE7FEE7FEE7FEE7FEE777
:10016000452A000831010008202A04DB203A21FA40
:1001700002F00021704721FA02F3D040C2F12002C0
:100180009140084319467047D2B201E000F8012BB4
:10019000491EFBD270470022F6E710B513460A4607
:1001A00004461946FFF7F0FF204610BD421C10F828
:1001B000011B0029FBD1801A7047F0B480EA0102CC
:1001C000D40F4200B2EB410F02D20246084611465C
:1001D0004A0042D0C30DDDB2C1F3C752AD1A202D83
:1001E00035DAC1F3160141F4000204B15242C5F1FF
:1001F000200602FA06F12A411044B3EBD05F23D067
:10020000C4B1012DA0EBC35009DCF0BC4FF000429B
:1002100002EAC352DBB200F5000000F02CBB400044
:1002200000F1807000EBC350A0F1807040EAD17003
:10023000490009E0490841EAC071A0EBC35000F54C
:100240000000400800EBC350F0BC00F00BBB614263
:10025000012202EB4101001BF6E7F0BC704781F080
:100260000041AAE780F00040A7E780EA010210B54C
:1002700002F00043400022D04A001FD0010E01EBE3
:100280001261C0F35600C2F3560240F4000042F47B
:100290000002A0FB022000047F39140400D0401C9F
:1002A00050EA124001D44000491EC2B20C0604EBD1
:1002B000D010401C4008802A02D003E0002010BD6E
:1002C00020F00100002900DA0020184310BD30B4EE
:1002D00080EA010202F0004530F0004221F00040C7
:1002E00013D090B1C30DD40DC2F31601C0F31600A4
:1002F000E41A41F4000140F400027D34914201D33C
:10030000641C00E04900002C02DA30BC0020704779
:100310004FF400000023914201D3891A034340089F
:100320004FEA4101F7D151B1914202D14FF0004162
:1003300005E002D24FF0010101E06FF0010103EB93
:10034000C450284430BC00F08DBA2DE9FE4F8046E1
:1003500081EA0300C00F0C46009021F0004123F019
:100360000045B8EB0200A94105D24046214690461F
:100370001C460B46024623F00040104347D0270D91
:10038000C7F30A00C3F30A510290401A01904028B3
:100390006BDAC3F3130040F4801B0098924620B13F
:1003A0000023D2EB030A63EB0B0B01985946C0F113
:1003B0004002504600F035FA06460D465046594672
:1003C000019A00F03DFA10EB08006141002487EA31
:1003D000115284EAE7731A4340D0009A62B3019A3B
:1003E000012A4FEA075215DC001B61EB02014FF0B6
:1003F000004202EA0752CDE90042001C41F580119B
:1004000032462B4600F074FA03B0BDE8F08F404648
:100410002146F9E7001B61EB0201001C41F5801346
:1004200000185B412018A2F5001747EB030140EAD2
:10043000D570B6196D4111E06D084FEA360645EAF0
:10044000C0754FEA0752001B61EB0201001C41F529
:10045000801149084FEA30000019514132462B46BD
:1004600003B0BDE8F04F00F034BA0098012240001C
:100470000023D0EB020263EBE073009821464FEAC1
:10048000E074B8EB000061EB0401E9E783F000439E
:100490005BE781F0004158E72DE9FE4F81EA030454
:1004A00004F0004421F0004100944FF0000B23F0D1
:1004B000004350EA01045ED052EA03045BD0C3F368
:1004C0000A54C1F30A552C44A4F2F3340194A0FB5E
:1004D0000254C1F3130141F48011C3F3130343F435
:1004E000801301FB024400FB034E840A970A44EA8E
:1004F000815447EA8357A4FB076802958D0A05FBE0
:1005000007854FEA932C04FB0C542705029D4FEA04
:10051000065847EA1637B5EB08056EEB070C870E51
:10052000920E47EA811742EA8312A7FB0201B6EB5B
:100530000B0164EB00042B0D43EA0C335E1844EB13
:100540001C50DA465146E7FB0201C5F313044FEA9B
:100550000B3343EA14534FEA0432019C43EA060387
:10056000A4F10C040294009CCDE900B400F0C0F9A1
:1005700003B0BDE8F08F00200146F9E72DE9F04D0A
:1005800081EA030404F0004B21F0004514464FF0CB
:10059000000A23F0004150EA050220D054EA01028B
:1005A0001DD0C5F30A570246C5F31303C1F3130068
:1005B000C1F30A5640F4801543F48013A7EB0608F4
:1005C000101BD64608F2FD3873EB050002D308F184
:1005D000010801E092185B41B8F1000F03DA002036
:1005E0000146BDE8F08D00204FF480110646844698
:1005F0000EE0171B73EB050705D3121B63EB050316
:1006000006434CEA010C49084FEA300092185B415E
:1006100050EA0107EDD152EA030012D082EA040049
:1006200083EA0501084305D0101BAB4106D2012225
:10063000002306E000224FF0004302E06FF00102C9
:1006400053101AEB06004CEB085110EB0A0041EB7B
:100650000B01BDE8F04D00F03CB996230022114695
:1006600000F009B90EB5C10F80EAE0700844CA076E
:10067000002140F233438DE80E000A460B4600F09D
:1006800037F903B000BD0EB540F2334102910021AD
:10069000CDE900110A460B4600F02AF903B000BD6F
:1006A00000F0004220F00040C10DC0F3160040F4FD
:1006B00000007F2901DA00207047962903DCC1F190
:1006C0009601C84001E096398840002AF4D04042A3
:1006D0007047C1F30A5210B5C1F3130140F2FF3362
:1006E00041F480119A4201DA002010BD40F23343F8
:1006F0009A42A2F2334203DC5242FFF735FD10BDAD
:10070000904010BD00F0004230F000400AD0C10D12
:1007100001F56071C0F3160042EA0151C2084007BA
:1007200011437047002001467047000030B5041E99
:1007300071F1000404DB4FF00044404264EB01011E
:10074000141E73F1000405DB1C464FF000435242B7
:1007500063EB04038B4208BF824230BD01F00043CB
:1007600030B421F0004150EA010206D00A0DA2F592
:100770006072C1F31301002A02DC30BC0020704714
:10078000440F44EAC104C100E01830BC00EBC25081
:1007900000F068B830B50B46014600202022012445
:1007A00009E021FA02F59D4205D303FA02F5491B3F
:1007B00004FA02F52844151EA2F10102F1DC30BD55
:1007C0002DE9F05F0546002092469B468846064686
:1007D000814640241BE02846414647462246FFF713
:1007E000C3FC53465A46C01A914110D311461846CD
:1007F000224600F016F82D1A67EB01084F462246F4
:100800000120002100F00DF817EB00094E41201ED9
:10081000A4F10104DFDC484631462A464346BDE8E0
:10082000F09F202A04DB203A00FA02F100207047F2
:100830009140C2F1200320FA03F31943904070471E
:10084000202A06DBCB17203A41FA02F043EAE07394
:1008500006E041FA02F3D040C2F120029140084381
:10086000194670470029A8BF7047401C490008BFBF
:1008700020F00100704710B4B0FA80FC00FA0CF0D0
:1008800050EA010404BF10BC704749B1CCF1200408
:1008900021FA04F411FA0CF118BF01212143084395
:1008A000A3EB0C01CB1D4FEA00614FEA102042BFC1
:1008B000002010BC704700EBC35010440029A4BFB7
:1008C00010BC7047401C490008BF20F0010010BC5C
:1008D000704710B5141E73F1000408DA401C41F192
:1008E000000192185B411A4301D120F0010010BDB4
:1008F0002DE9F04D92469B4611B1B1FA81F202E02A
:10090000B0FA80F220329046FFF78BFF04460F4684
:1009100040EA0A0041EA0B0153465A46084313D005
:10092000114653EA010019D0C8F140025046FFF7C2
:100930001BFC05460E46504659464246FFF771FFDE
:10094000084305D0012004E020463946BDE8F08D7B
:100950000020054346EAE0762C4337430A986305B6
:10096000E40AA0EB08000022FD0A44EA47540A30DA
:1009700002D500200146E9E7010510196941DDE9CA
:10098000084500196941BDE8F04DA2E7C1F30A52DC
:10099000C1F3130140F2FF3341F480119A4202DAAD
:1009A00000200146704740F233439A42A2F233429C
:1009B00002DC5242FFF7D8BBFFF733BF30B5041E4D
:1009C00071F1000404DB4FF00044404264EB01018C
:1009D000141E73F1000405DB1C464FF00043524225
:1009E00063EB0403994208BF904230BD064C074DAB
:1009F00006E0E06840F0010394E8070098471034EF
:100A0000AC42F6D3FFF798FB0C4D00082C4D0008C4
:100A100070B5044600688168C943C9071CD1816864
:100A200021F00101816000F0F5FC05460FE000BFF8
:100A300000F0F0FC401B022809D9A06A40F0100029
:100A4000A062E06A40F00100E062012070BD206811
:100A50008068C043C007EBD0002070BDF8B5002609
:100A60000446009600688168C943C90728D0816898
:100A700041F001018160134813490068B0FBF1F0B7
:100A800000E0401E00900028FBD100F0C3FC0546AA
:100A900011E000BF00F0BEFC401B02280BD9A06A89
:100AA00040F01000A062E06A40F00100E06284F8CB
:100AB00024600120F8BD20688068C043C007E9D1E8
:100AC0000020F8BD4C00002040420F00FEE77047B8
:100AD00001B5009801E0401E00900028FBD108BD40
:100AE000084810B50168C90607D5074A01211170E9
:100AF00010210160084600F079FBBDE8104010208D
:100B000000F076BB140401400000002030B5B3F5BE
:100B1000804F05D06FF0704140F82210002030BDAA
:100B20008C690B688D6823434C688989240144EAE9
:100B30000524234343EA014150F82230014C23406D
:100B40001943E9E70000F0CF10B50A6850F82230E9
:100B500023F0010340F822308C68082C23D00023B6
:100B60004A682243CC681C430B6922431A434B69F1
:100B70000E4C1A43CB691A430B6A1A434B6A1A4349
:100B80008B6A1A43CB6A1A430B6B1A438B69134364
:100B90004A6B09681A4350F82130A343134340F8C5
:100BA0002130002010BD4023DAE700007FFF0F0056
:100BB00030B5D1E9003443EA04138C688D892402EE
:100BC00044EA054423430C8A094D00EB820005EBFF
:100BD000045423430C7D6D0105EB046489692343B0
:100BE0000B43416801F040410B434360002030BD9E
:100BF0000000F0FFF8B500250446009590F82400A9
:100C0000012808D0012084F824002046FFF700FFC7
:100C1000060002D04BE00220F8BDA06A20F4885004
:100C200040F00200A062022000F092FC2249096814
:100C3000B1FBF0F0400000E0401E00900028FBD126
:100C40002046FFF70BFF2068816841F008018160B2
:100C500000F0E0FB074604E000F0DCFBC01B0A28C4
:100C600011D8206880680007F6D42068816841F0B8
:100C70000401816000F0CEFB07460EE000F0CAFBE5
:100C8000C01B0A2809D9A06A20F0020040F0100019
:100C9000A06284F824500120F8BD206880684007D5
:100CA000ECD4A06A20F0020040F00100A06284F8B9
:100CB00024503046F8BD00004C000020F8B5002458
:100CC000009490F824202546012A12D0012280F8B1
:100CD00024204A681F23072A0DD20668776B521E0C
:100CE00002EB820293409F430B6893401F4377635C
:100CF00019E00220F8BD06680D2A0AD2376BD21F10
:100D000002EB820293409F430B6893401F4337637B
:100D100009E0F76A0D3A02EB820293409F430B68A9
:100D200093401F43F7620A68072306680A2A0AD31A
:100D3000F7680A3A02EB420293409F438B68934064
:100D40001F43F76008E0376902EB420293409F437C
:100D50008B6893401F4337610A68102A01D0112A1B
:100D600020D1124B02689A4217D193681B0219D402
:100D7000936843F4000393600968102912D10C4969
:100D80000C4A0968B1FBF2F101EB8101490000E076
:100D9000491E00910029FBD104E0816A41F0200145
:100DA0008162012480F824502046F8BD00240140CF
:100DB0004C00002040420F000068C06C70470000EB
:100DC0002DE9F04104004FF000057FD0A06A002615
:100DD00028B9E66284F82460204600F081F82046B5
:100DE000FFF716FEA16AC90600D420B1A06A40F040
:100DF0001000A0626AE0A16A21F4885141F002016A
:100E0000A162334923688B42E16904D1B1F5402FD7
:100E100001D14FF40021277B4FF4807C41EA470247
:100E200061680A43A168614508D0012906D0002104
:100E300094F814E0BEF1010F02D00AE06146F7E732
:100E4000C7B1A76A47F02007A762E76A47F0010722
:100E5000E7625F6827F469470F435F60236899681A
:100E60001C4F394011439960A16861450BD001299D
:100E700009D00CE0DFF860E0A7690EEB47370F43BD
:100E800047F40061E5E7218A0D05A5F58015216885
:100E9000CB6A23F470032B43CB62216889680F4B24
:100EA0001940914208D1E662A16A21F0020141F0A5
:100EB0000101A162BDE8F081A06A20F0020040F0CB
:100EC0001000A062E06A40F00100E0620120F1E75A
:100ED000003C0140FDF7E1FF00E0FFFFFE0E1FFFB9
:100EE00010B586B000210091019102910391244C2C
:100EF0000368244903222448A34211D18B6943F497
:100F000000738B618B6903F4007304938B6943F066
:100F100010038B61896901F010010491102113E025
:100F20001A4CA34217D18B6943F480638B618B69A0
:100F300003F4806304938B6943F010038B61896928
:100F400001F0100104912021CDE90012694600F062
:100F50005BF906B010BD0E4CA342FAD18B6943F485
:100F600000438B618B6903F4004304938B6943F066
:100F700010038B61896901F0100104910821E3E7F6
:100F800000240140001002400010014000280140F0
:100F9000003C01402DE9F84300260D46044600962A
:100FA00000F038FA804620688168C90508D5A06A33
:100FB00040F02000A06284F824600120BDE8F8839E
:100FC0004168C90503D4C06A10F4700F26D002200E
:100FD00000F0BEFA38490968B1FBF0F720680369F0
:100FE00036490B424FEA61014FEAA1121BD1C36897
:100FF0004FEA611C13EA0C0F15D103690B4221D192
:10100000C06810421ED114201FE0681C06D045B3F2
:1010100000F000FAA0EB0800A84222D8206800687F
:101020008007F2D52AE003690B4202D1C168114260
:1010300006D0026922490A4206D1C068084203D19B
:10104000542002E0292000E0FC204743009813E0F0
:10105000681C0ED02DB100F0DDF9A0EB0800A8420D
:1010600007D9A06A40F00400A06284F8246003203D
:10107000A4E70098401C0090B842E9D321686FF0C3
:1010800012000860A06A40F40070A06220688068C6
:10109000C0F3424007280CD1207B50B9A06A20F44D
:1010A0008070A062A06AC00403D4A06A40F001006E
:1010B000A062002082E700004C0000202449922416
:1010C0004992240070B5044690F8240001280DD000
:1010D000012084F824002046FFF7C0FC02004FF0F6
:1010E000000005D084F82400104670BD022070BDB9
:1010F000A16A40F20123994341F48071A1621F4D1E
:1011000023681F49AB4218D10E6816F4702F14D013
:10111000A66A46F48016A6620E68760505D5A66A0C
:1011200026F4005646F48056A662A66AF6040AD54E
:10113000E66A26F00606E66206E0A66A26F480164F
:10114000A6625E68E9E7E06284F824006FF00200BE
:10115000186020688368C3F34243072B05D1A84277
:1011600008D1096811F4702F04D0816841F480110E
:101170008160B9E7816841F4A001F9E700280140E6
:101180000424014030B585B0002000900190029009
:1011900003901248016800291ED101210160104806
:1011A000416941F4807141614069022400F480701A
:1011B00004904FF68070CDE900040325694603953D
:1011C000084800F021F84CF6B370CDE900046946F8
:1011D0000395054800F018F805B030BD3800002030
:1011E0000010024000180140001401407047000048
:1011F000044910B50A68024202D00860FFF7F6FF02
:1012000010BD0000140401402DE9F84FDFF8C8912B
:10121000002409F1040A0AF1040B23460F270BF1FD
:10122000040ED1E00125A54006EA0502AA4276D1C6
:10123000DFF8A8C14E68A6EB0C0866452BD00DDC84
:10124000032E34D005DC36B3012E19D0022E2FD157
:101250001BE0112E16D0122E2AD119E0B8F5881FE6
:1012600019D006DCB8F5803F15D0B8F5801F1FD126
:1012700011E0B8F5001F0ED0B8F5041F18D10AE030
:10128000CB6815E0CB681B1D12E0CB6808330FE07C
:10129000CB680C330CE08B682BB1012B4FF00803AB
:1012A00003D0456104E0042302E0056100E000236F
:1012B000FF2A01D8064601E000F104064FEA840542
:1012C00001D9A5F12005D6F8008007FA05FC28EA27
:1012D0000C0803FA05F548EA0508C6F800804D68D1
:1012E000ED0070D53E4DAE6946F00106AE61AD69C8
:1012F00024F0030605F0010500953A4D06EB050CB8
:10130000DCF80850A607360F07FA06F825EA0805A4
:10131000DFF8D480404503D14FF0000825E052E0CB
:10132000DFF8C880404502D14FF001081DE0DFF82A
:10133000C080404502D14FF0020816E0DFF8B480CB
:10134000404502D14FF003080FE0DFF8AC80404584
:1013500002D14FF0040808E0DFF8A080404502D138
:101360004FF0050801E04FF0060808FA06F848EAD1
:101370000508CCF808804D68D9F80060ED034D46AB
:1013800001D5164300E096432E604D68DAF8006000
:10139000AD03554601D5164300E096432E604D68D7
:1013A000DBF80060ED025D4601D5164300E0964390
:1013B0002E604D68DEF80060AD02754601D516431B
:1013C00000E096432E60641C0A681646E2407FF4F3
:1013D00029AFBDE8F88F00000004014000001110A3
:1013E000001002400000014000080140000C0140D4
:1013F000001001400014014000180140001C014091
:101400008068084000D0012070470AB10161704730
:101410000904FBE701488068704700004000002095
:1014200002488168027811448160704740000020C2
:10143000074810B5016841F010010160032000F079
:1014400075F8002000F006F800F024F8002010BD28
:101450000020024070B50D4D04464FF47A71287893
:10146000B1FBF0F00A490968B1FBF0F000F0F0FBC5
:1014700048B9102C07D200222146501E00F036F841
:1014800000206C6070BD012070BD00004000002095
:101490004C0000200C4808B5816941F001018161D0
:1014A000816901F001010091C16941F08051C16180
:1014B000C06900F0805000900448416821F0E0616C
:1014C00041F00071416008BD001002400000014081
:1014D000002809DB00F01F02012191404009800033
:1014E00000F1E020C0F8001170470000F0B40E4B8E
:1014F0001B680C46C3F30223C3F10705042D00D972
:101500000425191D072901D2002300E0DB1E012656
:1015100006FA05F1491E214099409E40761E16406C
:101520003143F0BC01F068BF0CED00E0064900F06B
:10153000070208684FF6FF03184040EA0220034AFA
:1015400010430860704700000CED00E00000FA0551
:1015500010B52CA401461DCC86B08DE81D002DA031
:101560002D4C00680490002004292FD00BDC0129A9
:101570002FD0022928D100F061F96168C1F38131CF
:10158000491C49001EE0082920D010291CD161689F
:101590002268D20118D5C1F38342C9031DF80200A5
:1015A00009D5616804AAC1F34041515C1B4AB2FBF2
:1015B000F1F1484301E01A4948436168490203D404
:1015C00040000321B0FBF1F006B010BD00F046F979
:1015D000FAE7226AC2F30121012903D1920701D55A
:1015E000C803F1E7022905D1626A920702D549F6DC
:1015F0004040E9E70329E7D121688903E4D54FF2A8
:101600002440E1E702030405060708090A0B0C0D54
:101610000E0F1010010200000010024000127A00AC
:1016200000093D002DE9F84305460078354CC00718
:1016300054D0E0690026C00008D4E06940F0805032
:10164000E061E069012600F0805000902E480168BA
:10165000C90512D40168804641F480710160FFF72A
:10166000D9FE074605E000BFFFF7D4FEC01B642883
:1016700023D8D8F80000C005F6D5206A10F44070D1
:1016800021D0A98801F4407181421CD0206A1F49F1
:10169000012220F440700A6000220A602062C00724
:1016A00011D0FFF7B7FE074641F2883808E000BFC7
:1016B000FFF7B0FEC11B414502D90320BDE8F88306
:1016C000206A8007F4D5206A696820F440700843D6
:1016D00020621EB1E06920F08050E0612878800728
:1016E00005D56068A96820F4404008436060287808
:1016F000C00605D56068696920F480000843606011
:101700000020DBE70010024000700040400442422D
:101710002DE9F0470F46050061D0434E306800F0D8
:101720000700B84209D2306820F007003843306023
:10173000306800F00700B84251D128683B4C81075F
:1017400012D5400703D5606840F4E06060602878F7
:10175000000703D5606840F4605060606068A96865
:1017600020F0F000084360602878C00728D068683F
:10177000012810D02168022810D0890700292EDA0C
:10178000616821F0030101436160FFF743FE804679
:1017900041F288390DE021688903EFE78901EDE71F
:1017A000FFF738FEA0EB0801494502D90320BDE848
:1017B000F0876068696800F00C00B0EB810FEFD132
:1017C000306800F00700B8420BD9306820F00700FD
:1017D00038433060306800F00700B84201D0012083
:1017E000E5E72878400705D56068E96820F4E060FF
:1017F000084360602878000706D56068296920F4EE
:10180000605040EAC100606000F028F86168084A52
:10181000C1F30311515CC8400649086006480068DE
:10182000FFF718FE0020C2E700200240001002402F
:10183000F44C00084C0000204400002004480549F6
:1018400000684968044AC1F3C221515CC84070472E
:101850004C00002000100240044D000812A185B089
:101860000FC98DE80F0014A0144A00680490516855
:10187000134801F00C03042B10D0082B0ED1C1F338
:101880008343C9031DF803000AD5516804AAC1F3B4
:101890004041515C0A4A5043B0FBF1F005B070473B
:1018A00008494843FAE7000002030405060708094F
:1018B0000A0B0C0D0E0F1010010200000010024068
:1018C00000127A0000093D002DE9F84F040070D0A5
:1018D0002078C04DC00749D06868C0F38100012856
:1018E00007D06868C0F38100022809D16868C00386
:1018F00006D52868800339D560680028E7D035E030
:101900006068B0F5803F0BD010B1B0F5A02F11D0BA
:10191000286820F480302860286820F4802002E0C5
:10192000286840F480302860606890B1FFF772FD4D
:1019300006460AE0286840F480202860F0E700BFEF
:10194000FFF768FD801B642873D828688003F7D5EB
:101950000CE0FFF75FFD064605E000BFFFF75AFD0C
:10196000801B6428F0D828688003F7D420789A4E2A
:1019700080074FF001094FF0000839D5686810F072
:101980000C0F07D06868C0F38100022809D168688D
:10199000C00306D42868800714D52069012808D11F
:1019A00010E02069B0B1C6F80090FFF733FD07469C
:1019B00005E00AE1FFF72EFDC01B0228C4D8286805
:1019C0008007F7D52868616920F0F80040EAC10077
:1019D00028600DE0C6F80080FFF71CFD074604E014
:1019E000FFF718FDC01B022823D828688007F7D40A
:1019F000207800072CD57948A169D9B1C0F80090AA
:101A0000FFF708FD074604E0FFF704FDC01B0228AE
:101A10000FD8686A8007F7D571484FF4FA5100680B
:101A2000B0FBF1F0009000BF0098411E0091FAD287
:101A30000EE080E0C0F80080FFF7ECFC074604E011
:101A4000FFF7E8FCC01B022875D8686A8007F7D446
:101A50002078400760D5E8690027C00008D4E8690D
:101A600040F08050E861E869012700F08050009064
:101A70005C480168C90513D40168834641F480714C
:101A80000160FFF7C7FC824606E000BFFFF7C2FC1B
:101A9000A0EB0A0064284ED8DBF80000C005F5D59D
:101AA000E06801280AD008B1052813D0286A20F080
:101AB00001002862286A20F0040002E0286A40F051
:101AC00001002862E06841F2883B98B1FFF7A2FC70
:101AD00082460BE0286A40F004002862EEE700BF6F
:101AE000FFF798FCA0EB0A0159455AD8286A8007ED
:101AF000F6D50CE0FFF78EFC824605E0FFF78AFC86
:101B0000A0EB0A0159454CD8286A8007F6D41FB1CA
:101B1000E86920F08050E861E06988B36968C1F342
:101B20008101022944D00228C6F8608004D0FFF762
:101B300071FC044638E034E0FFF76CFC074604E033
:101B4000FFF768FCC01B02282BD828688001F7D457
:101B5000206AB0F5803F05D16868A16820F40030A4
:101B600008436860D4E908010843696821F47411E6
:101B700008436860C6F86090FFF74CFC044606E036
:101B800025E000BFFFF746FC001B022809D82868A3
:101B90008001F7D51BE000BFFFF73CFC001B0228CB
:101BA00002D90320BDE8F88F28688001F4D40EE044
:101BB0000128F7D06868226A00F48031914204D18C
:101BC000616A00F47010884201D00120EAE7002029
:101BD000E8E7000000100240000042428004424258
:101BE0004C0000200070004070B515460E46040001
:101BF00007D0A069B0F5807F03D094F8410010B100
:101C000007E0012070BD002084F84000204600F06D
:101C10001DF804F108012068FEF796FF3146A2681E
:101C20002068FEF7C5FFD4E901022946236BFEF7C1
:101C30006DFFA168206850F8212042F0010240F8B1
:101C40002120012084F84100002070BDFFF79ABADE
:101C500010B5401EB0F1807F01D3012010BD4FF0C0
:101C6000E02460610F21601701F0C6FB0020A06135
:101C700007202061002010BD70B590F83C20012A9B
:101C80002CD0012480F83C40022280F83D200368DB
:101C90005A689D6822F070060A6832435A60104BF9
:101CA00002689A420ED00F4B9A420BD0B2F1804F8D
:101CB00008D00D4B9A4205D00C4B9A4202D00C4BE7
:101CC0009A4204D1496825F080031943916080F855
:101CD0003D40002180F83C10084670BD022070BDD8
:101CE000002C014000340140000400400008004086
:101CF000000C004010B5040003D094F83D0010B172
:101D000007E0012010BD002084F83C00204600F0D0
:101D10001FF8022084F83D00211D206800F094FE89
:101D2000012084F8460084F83E0084F83F0084F8DF
:101D3000400084F8410084F8420084F8430084F8AD
:101D4000440084F8450084F83D00002010BD0000E8
:101D500008B50068B0F1804F08D10548C16941F06D
:101D60000101C161C06900F00100009008BD0000E0
:101D70000010024070B5044690F83C00012817D0CE
:101D8000012584F83C50022084F83D0020688268D8
:101D900022F0770222F47F4282600868502830D017
:101DA0000DDC20284DD005DC98B310283BD148E04D
:101DB000022070BD302844D0402834D139E060285A
:101DC00028D0702806D0B0F5805F2CD0B0F5005F29
:101DD00029D10AE0CB68D1E90121206800F087FE13
:101DE0002068816841F0770109E0CB68D1E90121E1
:101DF000206800F07CFE2068816841F480418160A9
:101E000011E0CA684968206800F046FF5021206848
:101E100007E016E0CA684968206800F04EFF6021BC
:101E2000206800F06EFE84F83D50002084F83C00ED
:101E300070BDCA684968206800F02EFF4021206804
:101E4000EFE7226801461046EBE7000000B585B0D9
:101E5000002100910191029103910068B0F1804F3F
:101E60001BD10F48816941F0040181618069694695
:101E700000F0040004904FF4004000900220019014
:101E800003900848FFF7C0F90748416821F4407102
:101E900041F0E06141F48071416005B000BD000097
:101EA00000100240000801400000014070B50446E7
:101EB00090F83C000D4601280AD0012084F83C002F
:101EC00042B1042A18D0082A2AD00C2A4DD139E070
:101ED000022070BD206800F01DFE2068816941F07D
:101EE000080181612068816921F004018161206815
:101EF00081692A69114311E0206800F03BFE2068E7
:101F0000816941F4006181612068816921F4806107
:101F10008161206881692A6941EA0221816124E0A6
:101F2000206800F05DFE2068C16941F00801C161D0
:101F30002068C16921F00401C1612068C1692A6972
:101F4000114311E0206800F07FFE2068C16941F470
:101F50000061C1612068C16921F48061C1612068AC
:101F6000C1692A6941EA0221C161002084F83C006C
:101F700070BD10B5040003D094F83D0010B107E027
:101F8000012010BD002084F83C00204600F01EF81F
:101F9000022084F83D00211D206800F055FD01203D
:101FA00084F8460084F83E0084F83F0084F840003E
:101FB00084F8410084F8420084F8430084F8440027
:101FC00084F8450084F83D00002010BD70470000F3
:101FD00010B50446022249B104290ED0082913D0B5
:101FE00094F84100012816D0012010BD94F83E005D
:101FF0000128F9D184F83E200FE094F83F00012831
:10200000F2D184F83F2008E094F840000128EBD199
:1020100084F8402001E084F841200122206800F08B
:1020200059FD13492068134A884201D0904203D1D8
:10203000436C43F400434364206888420DD09042CF
:102040000BD0B0F1804F08D00B49884205D00B4926
:10205000884202D00A49884204D1816801F0070110
:10206000062903D0016841F001010160002010BD84
:10207000002C0140003401400004004000080040F2
:10208000000C0040FEE70000044B4FF4805108B103
:10209000002200E001221846FFF7B7B90014014002
:1020A00070B51D461446049E00F07AF904FB05F055
:1020B0003146BDE8704000F00DB9000070B5203A1F
:1020C000D4B21023082200F06BF92C20C10608803E
:1020D0000C490D4B01EB041500204FF6FF742A5CF0
:1020E0000021D60702D01F261E8000E01C80491C5C
:1020F0005208C9B20829F4D3401CC0B21028EED34C
:1021000070BD00000447000800000260F0B5203AEE
:102110001C46D6B210230822059D00F041F92C2060
:10212000C10608800A490B4B002001EB061600216E
:10213000325CD70701D01D8000E01C80491C52088A
:10214000C9B20829F5D3401CC0B21028EFD3F0BDA6
:10215000044700080000026078B504464FF4784652
:102160000A380D4680B2012314220096FFF798FF2B
:102170000A3DA9B21423012220460096FFF790FFE2
:1021800078BD10B51446F02806D2B1F5A07F03D271
:1021900001231A4600F004F92146BDE81040012051
:1021A00000F098B82DE9FE4F161ACDE900104FF057
:1021B00000085D1A47464FF0FF30002E02DD4FF059
:1021C000010102E003D14FF000018B4602E083469B
:1021D000C6F10006002D02DD4FF0010002E003D140
:1021E0004FF00000824602E08246C5F10005AE4293
:1021F00001DD344600E02C46601C4FF000090290DF
:102200001AE000BFDDE900100C9AFFF7BAFFB044F6
:102210002F44A04505DD0198A8EB0408584480B27E
:102220000190A74204DD00983F1B504480B200900B
:1022300009F101001FFA80F902998945E2DDBDE844
:10224000FE8F0000F0B516460D4604464FF4A07709
:1022500014E000BF04F10800F02802D90024103572
:10226000ADB205F11000B84201D900242546294637
:102270002046FFF723FF0834A4B2761C3278002AE8
:10228000E8D1F0BD2DE9F843994616460D460446BF
:102290004FF4A077DDF8208017E000BF04F10800BC
:1022A000F02802D900241035ADB205F11000B84273
:1022B00001D9002425464B4629462046CDF800800A
:1022C000FFF724FF0834A4B2761C3278002AE5D147
:1022D000BDE8F88310B500222C23DC062380034BD5
:1022E00001E01980521C8242FBD310BD0000026045
:1022F00020494FF0C042012806D0022808D0032808
:102300000ED0042809D120E036201080C8201FE01C
:1023100036201080682006E008802C20108070474E
:1023200036201080282008802A2010800020088075
:102330000880012008803F2008802B20108000208A
:10234000088008800880EF20E6E7362010804820CB
:1023500008802A2010800020088008800880EF2054
:1023600008802B2010800020088008800120088031
:102370003F20D1E70000026008B50120FFF784FE8E
:1023800000F0EAF800F02CF84FF6FF700021009002
:102390004FF4A073F0220846FFF782FE08BD00004C
:1023A00070B54FF0C0452A242C800C4C060A2680BC
:1023B000C6B226801044401E020A2280C0B220808D
:1023C0002B202880080A2080C8B22080C818401E10
:1023D000010A2180C0B2208070BD000000000260B0
:1023E00000B54FF0C041CF2008805948002202803C
:1023F0008122028030220280ED220A806422028043
:10240000032202801222028081220280E8220A80B6
:10241000852202801022028078220280CB220A804C
:10242000392202802C220280002202803422028083
:1024300002220280F7220A8020220280EA220A80F9
:10244000002202800280B1220A80002202801B2228
:102450000280B6220A800A220280A2220280C022C2
:102460000A8035220280C1220A8011220280C52200
:102470000A80452202800280C7220A80A2220280AE
:10248000F2220A800022028026220A800122028093
:10249000E0220A800F22028026220280242202806B
:1024A0000B2202800E220280092202805422028026
:1024B000A8220280462202800C220280172202807B
:1024C000092202800F22028007220280002202805D
:1024D000E1220A8000220280192202801B2202804F
:1024E0000422028010220280072202802A22028017
:1024F00047220280392202800322028006220280C3
:10250000028030220280382202800F22028036228E
:102510000A80C82202802A220A80002202800280C9
:102520000280EF2202802B220A8000220280028099
:10253000012202803F2202803A220A805522028034
:10254000112008800348FEF7C3FA2920088000BD47
:1025500000000260FCBF020070B50A4C002202219C
:102560002046FEF752FF084D2846FEF7B1FA012239
:1025700002212046FEF749FF2846BDE87040FEF7DD
:10258000A7BA000000180140FCBF02003EB50021C0
:102590001148009101910F4A02910260012481606B
:1025A000047301754FF460220461C2614160FEF75B
:1025B00007FC08B172B6FEE70E20CDE90004052045
:1025C000029069460448FEF779FB002801D072B6F4
:1025D000FEE73EBD00240140500000203EB5002132
:1025E0001148009101910F4A02910260012481601B
:1025F000047301754FF460220461C2614160FEF70B
:10260000DFFB08B172B6FEE70F20CDE9000405201C
:10261000029069460448FEF751FB002801D072B6CB
:10262000FEE73EBD00280140800000203EB50021AD
:102630001148009101910F4A0291026001248160CA
:10264000047301754FF460220461C2614160FEF7BA
:10265000B7FB08B172B6FEE70D20CDE900040520F6
:10266000029069460448FEF729FB002801D072B6A3
:10267000FEE73EBD003C0140B000002000B587B041
:102680001C216846FDF787FD17484FF020411022B6
:1026900001601649416000218160C160C0E90412F7
:1026A0008161C16113020162C0E90913C162016362
:1026B000416381630F20FF230090CDE90103CDE941
:1026C00003021120CDE90501002269460648FFF703
:1026D0008BFA08B172B6FEE70548C16941F4806122
:1026E000C16107B000BD000028010020040100A066
:1026F000000001402DE9F04F85B0002453480094BC
:10270000019402940394816941F0400181618169DF
:1027100001F040010491816941F0100181618169FA
:1027200001F010010491816941F004018161816926
:1027300001F004010491816941F00801816181691E
:1027400001F008010491816941F0200181618069F3
:10275000DFF8FC8000F020000490002207214046B2
:10276000FEF753FEDFF8ECB0002210215846FEF7CA
:102770004CFE40F22329012249463748FEF745FE28
:102780004FF4405A002251463448FEF73EFE0022E4
:1027900040213348FEF739FE072001250326CDE905
:1027A0000005CDE9024669464046FEF72DFD0820AA
:1027B0008DE8310069464046FEF726FD102729487E
:1027C0000097CDE9010569464046FEF71DFD680307
:1027D0004FF002088DE8110169462148FEF714FD0B
:1027E000CDE9005469465846CDF80880FEF70CFD47
:1027F00000970396CDE9015469465846FEF704FD5B
:10280000CDF800900396CDE9015469461248FEF7D1
:10281000FBFCCDF800A00396CDE9015469460F48B2
:10282000FEF7F2FC4020CDE90005CDE902466946FD
:102830000B48FEF7E9FC002211460A20FEF756FE7F
:102840000A20FEF745FE05B0BDE8F08F00100240FB
:102850000018014000080140000C01400014014034
:10286000001001400000111010B58EB00024079434
:10287000089409940A940B941C2168460C94FDF763
:102880008AFC1E484FF0804101604FF47A71C0E924
:10289000011440F2AF41C0E903148461FFF72AFA42
:1028A00008B172B6FEE74FF48050079007A91348AD
:1028B000FFF760FA08B172B6FEE71048FFF759FB60
:1028C00008B172B6FEE70B940BA90C480C94FFF705
:1028D000D3F908B172B6FEE76020CDE90004029496
:1028E0000022694605480494FFF7E0FA08B172B681
:1028F000FEE70248FFF7AAFA0EB010BDE000002084
:10290000FEE7FEE700B587B06021CDE900100020AA
:1029100002900246049069460448FFF7C7FA002176
:102920000248FFF755FB07B000BD0000E0000020A3
:102930007047000070B5214E0546446801222021F1
:102940003046FEF762FD012211463046FEF75DFD7E
:10295000012202213046FEF758FDE86800282CD0FD
:102960001748844229DBB4F17A5F02DC002220217F
:1029700010E06FF07A502044B0F5000F02D2002230
:10298000012107E06FF07C502044B0F5800F06D2A3
:10299000002202213046BDE87040FEF736BDB4F19A
:1029A0007D5F0ADD002220213046FEF72EFD002249
:1029B00001213046FEF729FDEAE770BD000C014019
:1029C000CDCC4C3D7047FEF72BBD30B595B02821DE
:1029D0006846FDF7E0FB14210AA8FDF7DCFB18218F
:1029E0000FA8FDF7D8FB01210804CDE90010002550
:1029F000029502240491CDE907404FF4E0100990BC
:102A00006846FEF761FF08B172B6FEE70AA90F201B
:102A100081E831004FF48060CDE90D0502210AA85C
:102A2000FEF776FE08B172B6FEE74FF40040119053
:102A30000F940FA8FEF7F6FD002801D072B6FEE74E
:102A400015B030BD70470000F0B502681C4B1D4D3D
:102A50001D4E1E4F1E4C4FF0804C984209D0A04294
:102A600007D0604505D0A84203D0B04201D0B8429B
:102A700004D122F0700E4A6842EA0E02984209D050
:102A8000A04207D0604505D0A84203D0B04201D093
:102A9000B84203D122F44075CA682A434D6922F036
:102AA00080022A4302608A68C2620A68826298428F
:102AB00001D0A04201D10969016301214161F0BD4A
:102AC000002C01400004004000080040000C0040C1
:102AD0000034014010B501F01F030121046A994040
:102AE0008C430462016A9A401143016210BD10B523
:102AF000846842EA032224F47F440A43224382602A
:102B000010BD826822F070020A4342F00701816022
:102B100070470000F0B5026A22F001020262036A07
:102B200042688469124E24F073050C682C4323F02C
:102B300002058B682B430D4DA84201D0B04205D150
:102B400023F00807CB683B4323F00403A84201D0DD
:102B5000B04205D14D6922F4407215438A692A4377
:102B600042608461496841630362F0BD002C01400A
:102B700000340140F0B5026A22F010020262026ADB
:102B8000436884690D6824F4E64444EA05248D68AA
:102B900022F0200242EA05120F4D104EA84201D049
:102BA000B04206D1CF6822F0800242EA071222F03A
:102BB0004002A84201D0B04207D14D6923F44063DE
:102BC00043EA85038D6943EA85034360846149686C
:102BD00081630262F0BD0000002C0140003401401E
:102BE000F0B5026A22F480720262026A4368C46924
:102BF00022F4007224F073050C68124E2C438D6889
:102C000042EA05220E4DA84201D0B04206D1CF685B
:102C100022F4006242EA072222F48062A84201D034
:102C2000B04207D14D6923F4405343EA05138D693F
:102C300043EA05134360C4614968C1630262F0BDA1
:102C4000002C01400034014030B5026A22F4805269
:102C50000262046A4268C3690D6823F4E64343EAEA
:102C600005238D6824F4005444EA0534084DA84235
:102C700002D0084DA84204D14D6922F4804242EAB4
:102C800085124260C36149680164046230BD00007E
:102C9000002C01400034014010B5036A046A24F09E
:102CA00001040462846924F0F00444EA021423F06D
:102CB0000A020A438461026210BD10B5036A23F060
:102CC000100303628369046A23F4704343EA023207
:102CD00024F0A00343EA01118261016210BDFEE706
:102CE0002DE9F0470C460546088809891646421A20
:102CF000E388608901271B1A5A43A388C91A63888D
:102D0000181A01FB0020FDF7ADFC00221346C6E9AE
:102D10000C01FDF70BFD01D1002783E028882989EC
:102D2000E388421A60891B1A5A43AB88C91A638820
:102D3000181A01FB0020FDF795FCC6E90001218867
:102D40002089AB880A1A29895B1A5A432B88C91A29
:102D5000A388181A01FB0020FDF784FCC6E90201D4
:102D60002389AA88A188B5F8088003FB02F001FB3B
:102D7000180C608891460CFB00FC208800FB08F2D0
:102D8000B5F8008003FB182201FB08F1E38800FB83
:102D9000191002FB03C3618900FB0130FDF762FCDF
:102DA000C6E9040168886989E388421A60891B1AA8
:102DB0005A43EB88C91A6388181A01FB0020FDF7F3
:102DC00051FCC6E9060121882089EB880A1A698925
:102DD0005B1A5A436B88C91AA388181A01FB002092
:102DE000FDF740FCC6E908012289B5F80680A188F4
:102DF0006B8902FB08F001FB130C60886D880CFBEB
:102E000000FC20886943434302FB1532E38800FB42
:102E1000181002FB03C2618900FB0120FDF722FCB0
:102E2000C6E90A013846BDE8F08701B5002004E094
:102E30000B21491EC9B2FCD2401C00998842F7D32D
:102E400008BD2DE9F84380460C460127684600F08E
:102E50006FF8E0B3BDF80200FDF715FCD4E90223DA
:102E6000FDF71AFB05460E46BDF80000FDF70BFC0A
:102E7000D4E90023FDF710FB2A463346FDF765FA37
:102E8000D4E90423FDF761FAFDF723FCA8F800005C
:102E9000BDF80200FDF7F7FBD4E90823FDF7FCFAC3
:102EA00005460E46BDF80000FDF7EDFBD4E906230C
:102EB000FDF7F2FA2A463346FDF747FAD4E90A232A
:102EC000FDF743FAFDF705FCA8F8020001E0FFE773
:102ED00000273846BDE8F88370B500F047FA134E76
:102EE00000252A4604213046FEF78FFA01221146BA
:102EF0003046FEF78AFA0024002201213046FEF710
:102F000084FA08213046FEF77BFAC4F10B018840B1
:102F1000284385B2012211463046FEF776FA641C3A
:102F2000E4B20C2CE8D3284670BD00000018014024
:102F30002DE9F0418AB00546002628216846FDF7B4
:102F40002AF9DFF820816C469020FFF7C5FF07467D
:102F50000120FFF76AFFD020FFF7BEFF24F81670AC
:102F600004EB4601761C8882F6B210214046FEF73B
:102F700047FA08B90A2EE7D310214046FEF740FA77
:102F800010B13949002008700A2E03D000200AB081
:102F9000BDE8F081BDF90010BDF914008C46624611
:102FA0000346012634F916708F4201DA394602E0F1
:102FB000974200DD3A46761CF6B20A2EF2D301267D
:102FC00004EB4607B7F914709F4201DA3B4602E072
:102FD000874200DD3846761CF6B20A2EF0D3BDF9E2
:102FE0000240BDF90460BDF9067064443E443444B7
:102FF000BDF908603444BDF90A603444BDF90C6081
:103000003444BDF90E603444BDF910603444BDF958
:1030100012603444611A891AC9082980BDF9141054
:10302000BDF91620BDF91A401144BDF918202244FB
:103030001144BDF91C201144BDF91E201144BDF9F5
:1030400020201144BDF922201144BDF9242011444F
:10305000BDF926201144C91A081AC0086880012049
:1030600095E7000000180140000000202DE9F04F16
:10307000ABB03C21B4225020F025ADF80810ADF8DB
:103080001420ADF80A00ADF80C10ADF81020ADF822
:1030900016004FF4A076ADF80E50ADF81250012096
:1030A000FFF726F96FF00F0000EB560A68080024BE
:1030B0000A9070084FF6FF7B4FF478490690002184
:1030C000D84633462A460846CDF800B0FEF7E8FF5A
:1030D0008FA73846FDF76AF8C0F1070005EBC0007E
:1030E000C0F34F0043463A46CDF800900699FFF7EB
:1030F000C9F8621C8CA127A800F06AF9CDF80090ED
:103100001FFA8AF1434627AA0A98FFF7BBF88748B7
:10311000FFF78BFE02A800EB840130F824004988F9
:10312000FFF71AF821A800EB84073846FFF700FFE5
:103130000028FAD0641CE4B2042CC0D312AA21A93E
:1031400002A8FFF7CDFDDDE91E0100221346FDF7C1
:10315000EDFA7DD0BDF89200FDF795FA00910B9045
:10316000DDE91423FDF798F904460F46BDF89000F9
:10317000FDF789FA0991DDE9122301909246209327
:10318000FDF78AF922463B46FDF7DFF8DDE9162315
:10319000FDF7DBF8DDE91E4398462246FDF7EEF920
:1031A000FDF797FADDE91A2387B200990B98FDF72E
:1031B00073F90B91DDE91823109009990198FDF737
:1031C0006BF90B9B109AFDF7C0F8DDE91C23FDF7A6
:1031D000BCF843462246FDF7D1F9FDF77AFABDF86F
:1031E000141080B2B94201D2791A00E0C91B8AB228
:1031F000BDF81610814201D2401A00E0081A80B2D0
:103200000A2A56D80A2854D84746224643465046EA
:103210002099FDF7B3F9DFF8188122463B46C8E94B
:103220000001DDE91401FDF7A9F9C8E90201DDE9B2
:10323000160122463B46FDF7A1F9C8E90401DDE984
:10324000180122463B46FDF799F922463B4600E02D
:103250002FE0C8E90601DDE91A01FDF78FF9C8E999
:103260000801DDE91C0122463B46FDF787F9C8E964
:103270000A0100215C4633462A460846CDF800B0D4
:10328000FEF70EFF2BA63046FCF790FF404205EB01
:10329000C000C0F34F0023463246CDF80090069997
:1032A000FEF7F0FF2848FFF7C0FD01202BB0BDE876
:1032B000F08F002133462A460846CDF800B0FEF7CD
:1032C000EFFE22A42046FCF771FF404205EBC00050
:1032D000C0F34F004F465B462246CDF8009006995A
:1032E000FEF7D0FF1DA42046FCF760FF404205EB2F
:1032F000C0001021C0F34F0001EB56015B4622468F
:103300000097FEF7BFFF1848FFF78FFD0020CDE7BD
:10331000546F7563682043616C69627261746520E3
:103320002E2E2E2E2E2E000025640000A0860100D9
:103330000800002043616C696272617465205375F6
:103340006363656400000000400D030043616C6925
:103350006272617465206661696C00007472792024
:10336000616761696E00000040420F0070B5174D43
:103370000646002204212846FEF747F800220121D4
:103380002846FEF742F80024C4F1070026FA00F0B0
:10339000C00701D0012200E0002204212846FEF7E8
:1033A00034F80520FFF741FD012211462846FEF7BB
:1033B0002CF80520FFF739FD002201212846FEF7F1
:1033C00024F8641CE4B2082CDED370BD0018014060
:1033D0000FB4084B10B504A902AA039800F0EEF848
:1033E000044602A9002000F080FC204610BC5DF8D5
:1033F00014FB0000EB3C00080907090E002804DB61
:1034000000F1E02080F80014704700F00F0000F198
:10341000E02080F8141D704702E008C8121F08C1A0
:10342000002AFAD170477047002001E001C1121F45
:10343000002AFBD1704700002DE9FF5F82B0002118
:10344000DDE90430020DDDF840B0034318D044F646
:103450001050A2F2FF3242431514119801281FD0D8
:10346000A5EB0B00401C5FEA000A4FF000064E4F30
:10347000DFF83891B046504615D5CAF1000413E084
:10348000119801244AA3012801D16FEA0B01029887
:10349000119AC0E90031C0E9024206B0BDE8F09FD0
:1034A000CBF10000DFE704460021404A491842EB17
:1034B0000450CDE9001012E0E00707D032463B4649
:1034C00040464946FCF7E8FF8046894632463B467F
:1034D00010461946FCF7E0FF06460F466410002C24
:1034E000EAD1DDE90401DDE90023BAF1000F06DAD3
:1034F000FCF7D2FF42464B46FCF7CEFF05E0FDF756
:103500003DF842464B46FDF739F804460E46002288
:10351000284BFDF753FA03D84FF0FF30014607E080
:103520000022254B20463146FCF70FFFFDF72EFA0F
:10353000102409E0002C0ADB0A220023FDF740F9E1
:10354000039B30321A55641E50EA0102F2D1641C0A
:10355000039AC4F111031444119A012A03D00122E1
:1035600008430DD10AE0084304D000204FF0110BAE
:10357000119072E7A3EB0B056D1E0DE05B4504DDBA
:103580004FF0000205F1010504E003DA4FF00002FC
:10359000A5F10105002AECD002981199C0E9023189
:1035A000C0E9004579E70000000014400000F03F4A
:1035B000300000000000F0430000E03F2DE9FF4F25
:1035C00095B09B468946064600250FE2252877D10F
:1035D00000242746F84A0121059400E0044316F828
:1035E000013F203B01FA03F01042F7D130782A283E
:1035F00011D06FF02F033078A0F13002092A16D8CD
:10360000059A44F0020402EB820203EB42021044EA
:10361000761C0590EFE759F8042B0592002A03DA8F
:10362000504244F40054059044F00204761C307873
:103630002E2816D116F8010F44F004042A280DD0C4
:103640006FF02F023078A0F13003092B09D807EB77
:10365000870302EB4303C718761CF3E759F8047B92
:10366000761C30786C280FD006DC4C2817D06828E0
:103670000DD06A2814D104E0742810D07A280FD114
:103680000DE044F400140AE044F4801401E044F432
:1036900040147278824202D104F58014761C761CA4
:1036A000307866280BD013DC582877D009DC002846
:1036B00075D04528F6D04628F4D047281AD19DE188
:1036C00018E0632835D0642879D0652812D195E1B7
:1036D000702873D008DC6728F1D069286FD06E2875
:1036E0000DD06F2806D1B5E073282CD0752875D081
:1036F000782874D05A46179990476D1C75E1C4F329
:103700000250022809D003280DD0D9F8001004284F
:103710000DD00D6009F1040967E1D9F80010EA172E
:10372000C1E90052F6E7D9F800100D80F2E70D70FC
:10373000F0E719F8041B8DF8001000208DF8010047
:10374000EA46012003E059F804AB4FF0FF3061076F
:103750004FF0000102D40DE008F101018846B942A2
:103760000FDA8045F8DB1AF808100029F4D108E0D8
:1037700008F1010188468142FADB1AF80810002995
:10378000F6D105985B46A0EB080721463846179A04
:1037900000F094FA284400EB080507E04DE029E129
:1037A0000DE01AF8010B5A4617999047B8F1010835
:1037B000F7D25B4621463846179A13E142E00A22C7
:1037C0000092C4F302524FF0000A022A08D059F8BE
:1037D00004CB032A4FEAEC710AD00DE029E02AE07D
:1037E00009F1070121F00702F2E802C1914609E060
:1037F0000FFA8CFC4FEAEC71042A03D14FFA8CFCCF
:103800004FEAEC71002907DA0A460021DCF1000CCE
:1038100061EB02012D2202E0220504D52B228DF856
:103820000420012203E0E20701D02022F7E79046BE
:1038300059E00A2102E010220DE010214FF0000AA9
:1038400000910BE010224FF0000A44F00404082716
:10385000009203E008224FF0000A0092C4F30252E3
:10386000022A05D059F804CB0021032A08D009E028
:1038700009F1070121F00702F2E802C1914605E0D3
:103880001FFA8CFC042A01D10CF0FF0C4FF0000849
:10389000220728D5702806D0009B83F0100353EA36
:1038A0000A0305D00EE040228DF80420012208E032
:1038B0005CEA010206D030228DF804208DF8050064
:1038C00002229046009B83F0080353EA0A030AD1C0
:1038D0005CEA010201D1620705D530228DF804208F
:1038E0004FF001087F1E582804D034A003900EA882
:1038F00002900DE036A0F9E753466046009AFCF7C7
:103900005FFF84460398825C0298401E029002701A
:103910005CEA0100F0D1029806A9081A00F1200A19
:10392000600702D524F4803400E00127574502DD0A
:10393000A7EB0A0000E0002000EB0A0100900598C8
:103940004144401A0590E00306D45B462146179A8D
:10395000059800F0B3F90544002706E001A85A468F
:10396000C05D179990476D1C7F1C4745F6DBE0034F
:103970000CD55B462146179A059800F09FF905443F
:1039800004E030205A46179990476D1C0099481E54
:1039900000900029F5DC08E0029802995A46007868
:1039A000491C0291179990476D1CBAF10001AAF1C8
:1039B000010AF1DC65E100000928010030313233F1
:1039C000343536373839616263646566000000005B
:1039D0003031323334353637383941424344454645
:1039E0000000000000F058F90544761C30780028EB
:1039F0007FF4ECAD19B02846BDE8F08F620700D423
:103A0000062709F1070222F0070CFCE80223E14631
:103A100003F000485FEA080C02D00FF2702C0DE0B2
:103A20005FEA045C02D50FF2682C07E05FEAC47C11
:103A300002D00FF2602C01E0AFF2700C4FF0FF38B3
:103A400023F00043CDF850C065280CD006DC452893
:103A500009D046281DD047283DD13DE0662818D022
:103A600067287ED138E00021112F01DB112000E012
:103A7000781CCDE9000106A90EA8FFF7DDFCDDE901
:103A80000F010E9A03910021009207F1010A04919F
:103A90004DE04FF000400097CDE9011006A90EA8B7
:103AA000FFF7CAFCDDE90F0203920E9B1199002279
:103AB000DDF80CA00093049211B9791C00EB010A07
:103AC000B7EB0A0004D4C0F1FF3007F1010A0490FB
:103AD000AAEB0700019044E0012F00DA0127002142
:103AE000112F01DD112000E03846CDE9000106A9C3
:103AF0000EA8FFF7A1FCDDE90F010E9A039100214A
:103B000004910092BA4621070CD40399514500DA7A
:103B10008A46BAF1010F05DD009AAAF10101515C54
:103B2000302908D0B84202DA10F1040F06DA012178
:103B3000CDE9011015E0AAF10101E9E7002805DC53
:103B4000049901440491AAEB000102E0411C514593
:103B500000DD8A460499401A401C01904FF0004055
:103B60000290200704D40198504501DBCDF8048071
:103B700000208DF84F0002980DF14F07B0F1004F73
:103B800025D02B200E9002984FF0020800280CDA66
:103B9000404202902D200E9007E00A210298FCF787
:103BA000F9FD3031029007F8011DB8F10001A8F1CC
:103BB0000108F2DC02980028EFD1791E0E980870F7
:103BC000307800F0200040F0450007F8020D12A800
:103BD000C01B00F107081498007800B1012000EB29
:103BE0000A01019801EBE07105984144401A401E1A
:103BF0000590E00306D45B462146179A059800F02D
:103C00005DF805441498007818B15A461799904702
:103C10006D1CE00324D55B462146179A059800F0F9
:103C20004DF805441CE00498002807DBDDE903019A
:103C3000884203DD0098405C179901E01799302015
:103C40005A469047049805F10105401C04900198DC
:103C5000401E019004D12E205A46179990476D1CA2
:103C6000BAF10001AAF1010ADDDC05E017F8010B49
:103C70005A46179990476D1CB8F10001A8F1010848
:103C8000F4DC5B462146179A0598ABE62D00000050
:103C90002B000000200000002DE9F0410446002523
:103CA0001E461746880404D405E039462020B04754
:103CB0006D1C641EF9D52846BDE8F0812DE9F04160
:103CC000044600251E469046C80301D5302700E073
:103CD0002027880404D505E041463846B0476D1CCE
:103CE000641EF9D52846BDE8F0810A68531C0B60B4
:103CF000107070470146002001EB8002126A012A11
:103D000004D0401C0328F7DB4FF0FF30704700B5AC
:103D10000346FFF7EFFF03EB80013C224869401C9C
:103D200090FBF2F302FB1300486100BD416919B931
:103D3000816909B9C06908B1002070470120704746
:103D400010B50446C06A18B92046FFF7EFFF28B146
:103D50000020E0626061A061E06110BD0120E062CE
:103D6000FDF758FBE06410BD10B5D0E90521C2EBAA
:103D7000021201EB8201C269C1EB011102EB810168
:103D80000022002901DCC26210BD491E002903DCAB
:103D900042618261C261F6E74FF4616291FBF2F227
:103DA0006FF0E003534301EB03113C2391FBF3F36A
:103DB000A3EB031401EB84014261C0E9063110BD9D
:103DC0000021036A012213B1012B11D001E0436AE3
:103DD0001BB1436A012B0ED001E0836A33B1826AC2
:103DE000012A02D10162416281627047026270471A
:103DF000C0E90812F8E70162C0E909127047000043
:103E000070B50446808E0021A0F10F021C4E4FF4C5
:103E10000075232A09D8E28E642A06D37D2A04D8A5
:103E20002046E16000F048F81DE0A0F15F022D2A75
:103E300007D8E28E642A04D37D2A02D80120E060EC
:103E400014E0AA383C280ED8E08E64280BD37D28D5
:103E500009D80220C4E90301042000F07FFA0421FC
:103E6000204600F0C1FAE068022806D00122294667
:103E70003046BDE87040FDF7C8BA0022F7E7000001
:103E8000000C0140818EA1F12D021E2A06D8C28E9F
:103E9000A52A03D3BE2A01D800210AE0A539192991
:103EA00008D8C18EA52905D3BE2903D8C168012928
:103EB00000D101617047000010B504460020E060A9
:103EC00060602061E0626061A0610122E0615102F6
:103ED0000C48FDF79AFA032000F040FA032120462F
:103EE00000F082FA042000F039FA0421204600F0A4
:103EF0007BFA072000F032FA2046BDE81040072187
:103F000000F072BA000C014010B5C26801465AB107
:103F1000012A0BD0022A08D18068FCF7B4FB0022EA
:103F20002C4BFCF72BFB50E0002010BD2A4A086800
:103F30004FF07C53904201DA28482EE0264A524244
:103F400084184FF40022944201D2254825E0254CE4
:103F50000444944201D224481FE0244C0444944277
:103F600001D2184619E0224C0444944201D221485F
:103F700013E0214C0444944201D220480DE0204C2F
:103F80000444944201D21F4807E01F4C2044904251
:103F900001D21E4801E04FF07E500A69012AC4D1C7
:103FA000096B0029C1D01E2908D2B0F17A5F02DD69
:103FB0000020174909E0FCF7A5FB06E01E39462959
:103FC000B3D29842F7DD13490020BDE81040FCF75A
:103FD000C5BB000000FEAF400000B841CDCC4C3E58
:103FE0009A99993E000040BECDCCCC3E000038BE30
:103FF000000030BE9A99193F000028BE3333333F8A
:10400000000020BECDCC4C3F000018BE6666663F67
:104010000000D03F0000E03F1CB5FDF709FAFEF7B5
:10402000D4FCFEF767FBFEF729FBFEF7AFFAFEF7BD
:10403000D5FAFEF7FBFAFEF717FC4FF40057002203
:104040003946B548FDF7E1F9FEF796F90021B34886
:10405000FDF7BEFF0020FEF755FC00BFFFF706F896
:104060000028FBD00120FEF743F94FF6FF74002132
:104070004FF4A073F02208460094FEF711F80023D5
:10408000A7A24FF4917155200094FEF7FBF8A348C6
:104090009038FCF7AFFDA1486038FCF7ABFD9F48B6
:1040A0003038FCF7A7FD9D489038FDF70BF89B488A
:1040B0006038FDF707F899483038FDF703F897485E
:1040C0000021903000F090F994480321903000F0E6
:1040D0008BF992480421903000F086F98F48052131
:1040E000903000F081F98D480721903000F07CF984
:1040F0008A4C0025903425606560A560E5602561E7
:104100006561A561E56125626562A562E562256379
:10411000A586E586FDF77EF9A0636064E06420640F
:10412000A064206560652046FFF7C6FE7F4E4FF411
:104130007A7800BFFDF76EF9E063FDF76BF9216D4A
:10414000884215D3754841463038FCF723FF734841
:104150003038FCF731FEFCF780FA7549FCF7B7F808
:104160007449FCF77CF82060206D00F57A702065BA
:10417000FDF750F9616D88420ED3684841466038BA
:10418000FCF708FF65486038FCF716FE00B12063B5
:10419000606D00F57A706065604841469038FCF7C4
:1041A000F9FE5E489038FCF707FEA0605B4890304F
:1041B000FFF7AAFE606059489030FEF7BBFB5748F6
:1041C000903000F0BFF8A586E586A16CE06B8842D0
:1041D0000CD3594901A8FEF734FEBDF80400A086AF
:1041E000BDF80600E086A06C6430A0643078012839
:1041F0001AD14A489030FFF703FE032000F0AEF8D2
:1042000046480321903000F0EFF844489030FFF723
:1042100039FE042000F0A2F840480421903000F05C
:10422000E3F8A586E5863570FDF7F4F8E063216CC8
:10423000884228D3E06830B301214048FDF7E0F818
:10424000012806D039463E48FDF7DAF801280BD0A0
:1042500015E0E06A98B931489030FFF7B1FD0620CB
:1042600000F07CF8062118E02C489030FFF742FD62
:10427000401C2A4800F1900009D0FFF748FD206C4F
:1042800000F596702064E06A01280BD035E0FFF756
:1042900057FD072000F062F807212048903000F019
:1042A000A3F8ECE7FDF7B6F8E16C884225D91B4886
:1042B0009030FFF759FDE06AD8B918489030FFF701
:1042C000FBFD032000F04AF814480321903000F071
:1042D0008BF8042000F042F810480421903000F0E0
:1042E00083F8072000F03AF80C480721903000F0DE
:1042F0007BF8E06C00F57A70E064FDF78BF8616C98
:1043000088427FF617AF0548903000F0DBF9606C0B
:1043100000F5FA7060640DE700140140E000002031
:10432000536D6172742046616E0000000000002031
:10433000000020410000A0400800002000080140CB
:1043400000100140C168044819B101224021FDF765
:104350005CB80022FAE700000010014038B54FF6C3
:10436000FF74082838D2DFE800F0370411171D2346
:10437000292F142328220A2169200094FDF790FE9A
:10438000142328220A21CA20009422E00E23C722E7
:104390003321152000941CE00F23CD226921142025
:1043A000009416E00F238C22AA213220009410E002
:1043B0000F23AA22DC21282000940AE00523A02252
:1043C000EB212920009404E014235022FA215520E7
:1043D0000094FDF765FE38BDF02200214FF4A07374
:1043E00008460094F5E70000F0B500241F268DB0C4
:1043F00005464FF6FF734FF6E07708297AD2DFE8DB
:1044000001F004627A91C6DEECFD1D4687A20A2106
:104410001E200094FDF736FF2B4687A20A21962026
:104420000094FDF72FFF2B4685A21E215A200094F1
:10443000FDF728FF3223DC22194614200096FDF7F1
:10444000B1FE4123DC22194614200096FDF7AAFE96
:1044500014224123322110460096FDF7A3FEDC22F0
:104460004123322110460096FDF79CFE2B4677A291
:104470005A2169200094FDF705FF76A269211420D6
:10448000FDF7E0FE74A269216420FDF7DBFE74A253
:104490006921AF20FDF7D6FE2B4673A2962164203A
:1044A0000094FDF7EFFE6BA2AA213220FDF7CAFEB1
:1044B000AA216FA20846FDF7C5FEC8212B466DA2B2
:1044C0006420009443E02868FCF71CF902460B4680
:1044D0006AA106A8FEF77CFF6AA109A82A6BFEF76D
:1044E00077FF06AA0A216920FDF7ACFE0A2109AA76
:1044F000CA206FE014E064496868FBF7B6FEFCF779
:10450000CFF8002400F1140504F1320083B281B227
:10451000AAB214200096FDF745FE641C0F2CF3DBB5
:104520000DB0F0BDE868A8B1012820D00228F7D16D
:1045300048A269211420FDF785FE47A26921642065
:10454000FDF780FE3B4646A26921AF200094FDF7AF
:1045500099FEE5E73B463FA2692114200094FDF750
:1045600091FE3DA269216420FDF76CFE0BE039A2AB
:1045700069211420FDF766FE3B4637A269216420BD
:104580000094FDF77FFE692135A2AF2022E0286963
:1045900050B130A2AA213220FDF754FEAA213B4699
:1045A00033A208460094D2E73B462AA2AA21322031
:1045B0000094FDF767FEAA212DA208460AE0D5E97E
:1045C00006306A69009031A101A8FEF701FF01AA37
:1045D000DC212820FDF736FEA2E72846FFF78AFBFC
:1045E00080B12846FFF786FB012810D02846FFF748
:1045F00081FB022894D12CA2EB2100E00CE0B82032
:104600000094A4E7EB2128A2292000949FE7EB2146
:1046100025A2702000949AE7E86A18B1FA2123A233
:104620005520D7E7FA2124A25720D3E754656D70AF
:10463000742843293A2000004E6F6973653A2000C0
:104640005370656564282529000000004D6F64657E
:10465000000000004F6666004175746F00000000A6
:104660004D616E75616C000053696C656E7400007D
:104670004F6E000054696D6572000000252E316692
:10468000000000002564000000004843253032642B
:104690002020203A202020253032642020203A207B
:1046A00020202530326400005E5E000043616E63AE
:1046B000656C284B322900005374617274284B32A8
:1046C0002900000010B504460120FFF747FE012134
:1046D0002046FFF789FE0220FFF740FE0221204618
:1046E000FFF782FE0520FFF739FE05212046FFF780
:1046F0007BFE0620FFF732FE2046BDE81040062173
:10470000FFF772BE00000000000000000000000083
:1047100000000000000000183C3C3C18180018186D
:104720000000000000000066666600000000000057
:10473000000000000000006C6CFE6C6C6CFE6C6C89
:10474000000000000018183C66060C183060663C3B
:104750001818000000000E1B5B6E30180C76DAD8BB
:10476000700000000000001C36361C06F66666DC91
:1047700000000000000000181818000000000000F1
:10478000000000000000003018180C0C0C0C0C1875
:10479000183000000000000C18183030303030188D
:1047A000180C000000000000006C38FE386C00009F
:1047B00000000000000000000018187E181800001B
:1047C0000000000000000000000000000000383879
:1047D00030180000000000000000007E0000000013
:1047E0000000000000000000000000000000383859
:1047F000000000000000006060303018180C0C064B
:104800000600000000000078CCECECCCDCDCCC78BE
:104810000000000000000030383E303030303030D2
:10482000000000000000003C66666030180C067E48
:10483000000000000000003C666660386066663C70
:10484000000000000000000C0C6C6C6C66FE6060E8
:10485000000000000000007E0606063E6060301E7C
:104860000000000000000038180C3E666666663CDA
:10487000000000000000007E60303018180C0C0CA6
:10488000000000000000003C66666E3C7666663CF8
:10489000000000000000003C666666667C30181C64
:1048A0000000000000000000003838000000383828
:1048B0000000000000000000003838000000383818
:1048C000301800000000006030180C060C18306032
:1048D000000000000000000000007E007E000000DC
:1048E00000000000000000060C18306030180C06B4
:1048F000000000000000003C666630181800181820
:10490000000000000000007EC3C3F3DBDBF303FE06
:1049100000000000000000183C6666667E66666661
:10492000000000000000003E6666663E6666663E69
:10493000000000000000003C666606060666663C55
:10494000000000000000001E366666666666361EC1
:10495000000000000000007E0606063E0606067EF9
:10496000000000000000007E0606063E0606060661
:10497000000000000000003C666606067666667C65
:1049800000000000000000666666667E6666666679
:10499000000000000000003C181818181818183CF7
:1049A0000000000000000060606060606066663CBF
:1049B00000000000000000666636361E3636666669
:1049C0000000000000000006060606060606067E39
:1049D00000000000000000C6C6EED6D6D6C6C6C689
:1049E00000000000000000C6C6CEDEF6E6C6C6C661
:1049F000000000000000003C666666666666663C75
:104A0000000000000000003E6666663E06060606E0
:104A1000000000000000003C666666666666663C54
:104A2000306000000000003E6666663E36666666E0
:104A3000000000000000003C66060C183060663C78
:104A4000000000000000007E181818181818181828
:104A50000000000000000066666666666666663CEA
:104A600000000000000000666666666666663C1828
:104A700000000000000000C6C6C6D6D6D66C6C6C1E
:104A80000000000000000066662C18183466666698
:104A900000000000000000666666663C18181818E2
:104AA000000000000000007E606030180C06067EEA
:104AB000000000000000003C0C0C0C0C0C0C0C0C5A
:104AC0000C0C3C0000000006060C0C18183030607E
:104AD000600000000000003C3030303030303030BA
:104AE00030303C0000183C66000000000000000070
:104AF00000000000000000000000000000000000B6
:104B00000000FF00001C1830000000000000000042
:104B10000000000000000000003C60607C66667CD5
:104B20000000000000000006063E66666666663EFF
:104B30000000000000000000003C66060606663C1F
:104B40000000000000000060607C66666666667CAF
:104B50000000000000000000003C66667E06063C87
:104B600000000000000000780C0C0C7E0C0C0C0CFB
:104B70000000000000000000007C66666666667C3F
:104B800060603E0000000006063E66666666666679
:104B90000000000000001818001E18181818187ED1
:104BA0000000000000003030003C30303030303049
:104BB00030301E0000000006066666361E36666649
:104BC000000000000000001E181818181818187EA1
:104BD0000000000000000000007ED6D6D6D6D6C663
:104BE0000000000000000000003E66666666666623
:104BF0000000000000000000003C66666666663C3F
:104C00000000000000000000003E66666666663E2A
:104C10000606060000000000007C66666666667C8C
:104C200060606000000000000066760E0606060662
:104C30000000000000000000007C06063C60603EB2
:104C4000000000000000000C0C7E0C0C0C0C0C781A
:104C50000000000000000000006666666666667C74
:104C600000000000000000000066666666663C18F2
:104C7000000000000000000000C6D6D6D6D66C6C3E
:104C800000000000000000000066663C183C6666FC
:104C90000000000000000000006666666666663C74
:104CA00030180F0000000000007E6030180C067EF7
:104CB00000000000000000301818180C060C18182E
:104CC00018300000000000181818181818181818C4
:104CD000181818000000000C181818306030181848
:104CE000180C00000000008EDB71000000000000C6
:104CF00000000000000000000000000001020304AA
:104D00000607080900000000010203042C4D0008FA
:104D10000000002050000000183400087C4D0008FE
:104D20005000002078050000283400080000000032
:104D300000000000925ED4EE5701B63F2BA226FA87
:104D40007C9451BF3CF54883DBEA13C079E92631F6
:104D500008AC5CBF08E8BE9CD9AEB03F1C5C3AE62C
:104D60003CA32AC000000000000000000100000079
:0C4D700010000000000000000024F4000F
:0400000508000131BD
:00000001FF
