:020000040800F2
:100000009004002045010008A71F0008251A0008D9
:10001000A51F0008150900082D2000080000000099
:10002000000000000000000000000000AB1F0008FE
:100030001709000800000000A91F0008AD1F0008F4
:100040005F0100085F0100085F0100085F01000810
:100050005F0100085F0100085F0100085F01000800
:100060005F0100085F0100085F0100085F010008F0
:100070005F0100085F0100085F0100085F010008E0
:100080005F0100085F0100085F0100085F010008D0
:100090005F0100085F0100085F0100085F010008C0
:1000A0005F0100085F0100085F0100085F010008B0
:1000B0005F0100085F0100085F0100085F010008A0
:1000C0005F0100085F0100085F0100085F01000890
:1000D0005F0100085F0100085F0100085F01000880
:1000E0005F0100085F0100085F0100085F01000870
:1000F0005F0100085F0100085F0100085F01000860
:100100005F0100085F0100085F0100085F0100084F
:100110005F0100085F0100085F0100085F0100083F
:100120005F0100085F0100085F0100085F0100082F
:10013000DFF80CD000F07EFB004800477129000872
:10014000900400200648804706480047FEE7FEE787
:10015000FEE7FEE7FEE7FEE7FEE7FEE7FEE7FEE777
:100160002B20000831010008202A04DB203A21FA64
:1001700002F00021704721FA02F3D040C2F12002C0
:100180009140084319467047D2B201E000F8012BB4
:10019000491EFBD270470022F6E710B513460A4607
:1001A00004461946FFF7F0FF204610BD80EA010221
:1001B00010B502F00043400022D04A001FD0010ECB
:1001C00001EB1261C0F35600C2F3560240F4000086
:1001D00042F40002A0FB022000047F39140400D086
:1001E000401C50EA124001D44000491EC2B20C0625
:1001F00004EBD010401C4008802A02D003E000200D
:1002000010BD20F00100002900DA0020184310BDC5
:100210002DE9FE4F804681EA0300C00F0C46009096
:1002200021F0004123F00045B8EB0200A94105D2BE
:100230004046214690461C460B46024623F00040AD
:10024000104347D0270DC7F30A00C3F30A510290A9
:10025000401A019040286BDAC3F3130040F4801B6E
:100260000098924620B10023D2EB030A63EB0B0BFC
:1002700001985946C0F14002504600F0F6F9064692
:100280000D4650465946019A00F0FEF910EB080061
:100290006141002487EA115284EAE7731A4340D08F
:1002A000009A62B3019A012A4FEA075215DC001B3B
:1002B00061EB02014FF0004202EA0752CDE9004231
:1002C000001C41F5801132462B4600F035FA03B090
:1002D000BDE8F08F40462146F9E7001B61EB0201C3
:1002E000001C41F5801300185B412018A2F500178F
:1002F00047EB030140EAD570B6196D4111E06D0876
:100300004FEA360645EAC0754FEA0752001B61EB1B
:100310000201001C41F5801149084FEA3000001924
:10032000514132462B4603B0BDE8F04F00F0F5B91D
:100330000098012240000023D0EB020263EBE0733F
:10034000009821464FEAE074B8EB000061EB04012D
:10035000E9E783F000435BE781F0004158E72DE9CE
:10036000FE4F81EA030404F0004421F000410094B0
:100370004FF0000B23F0004350EA01045ED052EA34
:1003800003045BD0C3F30A54C1F30A552C44A4F20E
:10039000F3340194A0FB0254C1F3130141F4801122
:1003A000C3F3130343F4801301FB024400FB034E29
:1003B000840A970A44EA815447EA8357A4FB0768F2
:1003C00002958D0A05FB07854FEA932C04FB0C541C
:1003D0002705029D4FEA065847EA1637B5EB080590
:1003E0006EEB070C870E920E47EA811742EA8312E2
:1003F000A7FB0201B6EB0B0164EB00042B0D43EAF3
:100400000C335E1844EB1C50DA465146E7FB020100
:10041000C5F313044FEA0B3343EA14534FEA043293
:10042000019C43EA0603A4F10C040294009CCDE96C
:1004300000B400F081F903B0BDE8F08F0020014660
:10044000F9E72DE9F04D81EA030404F0004B21F0B7
:10045000004514464FF0000A23F0004150EA05021F
:1004600020D054EA01021DD0C5F30A570246C5F355
:100470001303C1F31300C1F30A5640F4801543F48B
:100480008013A7EB0608101BD64608F2FD3873EB65
:10049000050002D308F1010801E092185B41B8F1B0
:1004A000000F03DA00200146BDE8F08D00204FF474
:1004B0008011064684460EE0171B73EB050705D333
:1004C000121B63EB050306434CEA010C49084FEA93
:1004D000300092185B4150EA0107EDD152EA030067
:1004E00012D082EA040083EA0501084305D0101BFC
:1004F000AB4106D20122002306E000224FF0004368
:1005000002E06FF0010253101AEB06004CEB0851A9
:1005100010EB0A0041EB0B01BDE8F04D00F0FDB817
:10052000C10F80EAE0700844CA079623002100F05A
:10053000C6B80EB540F2334102910021CDE9001159
:100540000A460B4600F0F8F803B000BD00F0004288
:1005500020F00040C10DC0F3160040F400007F29D8
:1005600001DA00207047962903DCC1F19601C840EA
:1005700001E096398840002AF4D04042704700F0EC
:10058000004230F000400AD0C10D01F56071C0F3A7
:10059000160042EA0151C20840071143704700208B
:1005A0000146704701F0004330B421F0004150EAA9
:1005B000010206D00A0DA2F56072C1F31301002AF0
:1005C00002DC30BC00207047440F44EAC104C10083
:1005D000E01830BC00EBC25000F068B830B50B46F4
:1005E000014600202022012409E021FA02F59D4263
:1005F00005D303FA02F5491B04FA02F52844151E37
:10060000A2F10102F1DC30BD2DE9F05F05460020CA
:1006100092469B4688460646814640241BE0284673
:10062000414647462246FFF79FFD53465A46C01AA9
:10063000914110D311461846224600F016F82D1AA3
:1006400067EB01084F4622460120002100F00DF81B
:1006500017EB00094E41201EA4F10104DFDC4846DF
:1006600031462A464346BDE8F09F202A04DB203A63
:1006700000FA02F1002070479140C2F1200320FAF5
:1006800003F3194390407047202A06DBCB17203A2A
:1006900041FA02F043EAE07306E041FA02F3D04087
:1006A000C2F1200291400843194670470029A8BFB3
:1006B0007047401C490008BF20F00100704710B48B
:1006C000B0FA80FC00FA0CF050EA010404BF10BC40
:1006D000704749B1CCF1200421FA04F411FA0CF16D
:1006E00018BF012121430843A3EB0C01CB1D4FEAA6
:1006F00000614FEA102042BF002010BC704700EBA1
:10070000C35010440029A4BF10BC7047401C4900CE
:1007100008BF20F0010010BC704710B5141E73F123
:10072000000408DA401C41F1000192185B411A43B1
:1007300001D120F0010010BD2DE9F04D92469B46FD
:1007400011B1B1FA81F202E0B0FA80F220329046A3
:10075000FFF78BFF04460F4640EA0A0041EA0B010F
:1007600053465A46084313D0114653EA010019D0A4
:10077000C8F140025046FFF7F7FC05460E465046CA
:1007800059464246FFF771FF084305D0012004E0B7
:1007900020463946BDE8F08D0020054346EAE07664
:1007A0002C4337430A986305E40AA0EB08000022B3
:1007B000FD0A44EA47540A3002D500200146E9E721
:1007C000010510196941DDE9084500196941BDE8D5
:1007D000F04DA2E7C1F30A52C1F3130140F2FF3317
:1007E00041F480119A4202DA00200146704740F23B
:1007F00033439A42A2F2334202DC5242FFF7B4BCC6
:10080000FFF733BF30B5041E71F1000404DB4FF075
:100810000044404264EB0101141E73F1000405DB47
:100820001C464FF00043524263EB0403994208BF59
:10083000904230BD064C074D06E0E06840F00103F1
:1008400094E8070098471034AC42F6D3FFF774FCE5
:10085000443200086432000870B5044600688168BC
:10086000C943C9071CD1816821F00101816000F0F2
:10087000B5FC05460FE000BF00F0B0FC401B0228AD
:1008800009D9A06A40F01000A062E06A40F00100BF
:10089000E062012070BD20688068C043C007EBD0D3
:1008A000002070BDF8B500260446009600688168F7
:1008B000C943C90728D0816841F00101816013480C
:1008C00013490068B0FBF1F000E0401E00900028E2
:1008D000FBD100F083FC054611E000BF00F07EFC78
:1008E000401B02280BD9A06A40F01000A062E06A09
:1008F00040F00100E06284F824600120F8BD206827
:100900008068C043C007E9D10020F8BD1400002072
:1009100040420F00FEE7704701B5009801E0401E1D
:1009200000900028FBD108BD30B5B3F5804F05D04D
:100930006FF0704140F82210002030BD8C690B68C8
:100940008D6823434C688989240144EA05242343A4
:1009500043EA014150F82230014C23401943E9E7B2
:100960000000F0CF10B50A6850F8223023F00103E0
:1009700040F822308C68082C23D000234A68224398
:10098000CC681C430B6922431A434B690E4C1A4333
:10099000CB691A430B6A1A434B6A1A438B6A1A4390
:1009A000CB6A1A430B6B1A438B6913434A6B096872
:1009B0001A4350F82130A343134340F8213000205C
:1009C00010BD4023DAE700007FFF0F0030B5D1E90A
:1009D000003443EA04138C688D89240244EA0544F8
:1009E00023430C8A094D00EB820005EB045423439A
:1009F0000C7D6D0105EB0464896923430B43416859
:100A000001F040410B434360002030BD0000F0FF87
:100A1000F8B500250446009590F82400012808D078
:100A2000012084F824002046FFF716FF060002D0BC
:100A30004BE00220F8BDA06A20F4885040F002008C
:100A4000A062022000F05AFC22490968B1FBF0F0D4
:100A5000400000E0401E00900028FBD12046FFF738
:100A600021FF2068816841F00801816000F0B6FB39
:100A7000074604E000F0B2FBC01B0A2811D820682A
:100A800080680007F6D42068816841F00401816025
:100A900000F0A4FB07460EE000F0A0FBC01B0A28F4
:100AA00009D9A06A20F0020040F01000A06284F88A
:100AB00024500120F8BD206880684007ECD4A06A6B
:100AC00020F0020040F00100A06284F8245030467B
:100AD000F8BD000014000020F8B50024009490F840
:100AE00024202546012A12D0012280F824204A68B9
:100AF0001F23072A0DD20668776B521E02EB820273
:100B000093409F430B6893401F43776319E0022093
:100B1000F8BD06680D2A0AD2376BD21F02EB82029B
:100B200093409F430B6893401F43376309E0F76A84
:100B30000D3A02EB820293409F430B6893401F43A0
:100B4000F7620A68072306680A2A0AD3F7680A3A8E
:100B500002EB420293409F438B6893401F43F76030
:100B600008E0376902EB420293409F438B68934051
:100B70001F4337610A68102A01D0112A20D1124B75
:100B800002689A4217D193681B0219D4936843F400
:100B9000000393600968102912D10C490C4A0968B6
:100BA000B1FBF2F101EB8101490000E0491E009127
:100BB0000029FBD104E0816A41F020018162012417
:100BC00080F824502046F8BD002401401400002085
:100BD00040420F000068C06C704700002DE9F041F2
:100BE00004004FF000057FD0A06A002628B9E66215
:100BF00084F82460204600F081F82046FFF72CFEA0
:100C0000A16AC90600D420B1A06A40F01000A06219
:100C10006AE0A16A21F4885141F00201A1623349DE
:100C200023688B42E16904D1B1F5402F01D14FF423
:100C30000021277B4FF4807C41EA470261680A4328
:100C4000A168614508D0012906D0002194F814E07C
:100C5000BEF1010F02D00AE06146F7E7C7B1A76A0B
:100C600047F02007A762E76A47F00107E7625F687D
:100C700027F469470F435F60236899681C4F394028
:100C800011439960A16861450BD0012909D00CE09E
:100C9000DFF860E0A7690EEB47370F4347F40061C8
:100CA000E5E7218A0D05A5F580152168CB6A23F4B7
:100CB00070032B43CB62216889680F4B1940914226
:100CC00008D1E662A16A21F0020141F00101A162AE
:100CD000BDE8F081A06A20F0020040F01000A062A0
:100CE000E06A40F00100E0620120F1E7003C0140D1
:100CF000FDF7E1FF00E0FFFFFE0E1FFF00B585B02E
:100D00000021009101910291039100680E498842EF
:100D100018D10E48816941F400718161816901F443
:100D200000710491816941F0100181618069694617
:100D300000F010000490102000900320019004485F
:100D400000F046F905B000BD00240140001002404B
:100D5000001001402DE9F84300260D460446009698
:100D600000F03CFA804620688168C90508D5A06A71
:100D700040F02000A06284F824600120BDE8F883E0
:100D80004168C90503D4C06A10F4700F26D0022050
:100D900000F0B4FA38490968B1FBF0F7206803693C
:100DA00036490B424FEA61014FEAA1121BD1C368D9
:100DB0004FEA611C13EA0C0F15D103690B4221D1D4
:100DC000C06810421ED114201FE0681C06D045B335
:100DD00000F004FAA0EB0800A84222D820680068BE
:100DE0008007F2D52AE003690B4202D1C1681142A3
:100DF00006D0026922490A4206D1C068084203D1DE
:100E0000542002E0292000E0FC204743009813E032
:100E1000681C0ED02DB100F0E1F9A0EB0800A8424B
:100E200007D9A06A40F00400A06284F8246003207F
:100E3000A4E70098401C0090B842E9D321686FF005
:100E400012000860A06A40F40070A0622068806808
:100E5000C0F3424007280CD1207B50B9A06A20F48F
:100E60008070A062A06AC00403D4A06A40F00100B0
:100E7000A062002082E70000140000202449922490
:100E80004992240070B5044690F8240001280DD042
:100E9000012084F824002046FFF704FD02004FF0F3
:100EA000000005D084F82400104670BD022070BDFB
:100EB000A16A40F20123994341F48071A1621F4D60
:100EC00023681F49AB4218D10E6816F4702F14D056
:100ED000A66A46F48016A6620E68760505D5A66A4F
:100EE00026F4005646F48056A662A66AF6040AD591
:100EF000E66A26F00606E66206E0A66A26F4801692
:100F0000A6625E68E9E7E06284F824006FF0020000
:100F1000186020688368C3F34243072B05D1A842B9
:100F200008D1096811F4702F04D0816841F4801150
:100F30008160B9E7816841F4A001F9E70028014028
:100F40000424014070B5044600F048F90546601CD1
:100F500002D004480078044400F040F9401BA0424D
:100F6000FAD370BD0800002030B585B00020009095
:100F70000190029003901248016800291ED10121BE
:100F800001601048416941F4807141614069022467
:100F900000F4807004904FF68070CDE900040325C2
:100FA00069460395084800F013F84CF6B370CDE994
:100FB000000469460395054800F00AF805B030BD05
:100FC0000000002000100240001801400014014001
:100FD0002DE9F84FDFF8C891002409F1040A0AF15D
:100FE000040B23460F270BF1040ED1E00125A54089
:100FF00006EA0502AA4276D1DFF8A8C14E68A6EB40
:101000000C0866452BD00DDC032E34D005DC36B33E
:10101000012E19D0022E2FD11BE0112E16D0122E28
:101020002AD119E0B8F5881F19D006DCB8F5803F41
:1010300015D0B8F5801F1FD111E0B8F5001F0ED0F4
:10104000B8F5041F18D10AE0CB6815E0CB681B1D6A
:1010500012E0CB6808330FE0CB680C330CE08B68F0
:101060002BB1012B4FF0080303D0456104E00423AA
:1010700002E0056100E00023FF2A01D8064601E0F6
:1010800000F104064FEA840501D9A5F12005D6F840
:10109000008007FA05FC28EA0C0803FA05F548EA7F
:1010A0000508C6F800804D68ED0070D53E4DAE696C
:1010B00046F00106AE61AD6924F0030605F00105B6
:1010C00000953A4D06EB050CDCF80850A607360FE4
:1010D00007FA06F825EA0805DFF8D480404503D171
:1010E0004FF0000825E052E0DFF8C880404502D10B
:1010F0004FF001081DE0DFF8C080404502D14FF0FD
:10110000020816E0DFF8B480404502D14FF0030832
:101110000FE0DFF8AC80404502D14FF0040808E052
:10112000DFF8A080404502D14FF0050801E04FF004
:10113000060808FA06F848EA0508CCF808804D6861
:10114000D9F80060ED034D4601D5164300E0964303
:101150002E604D68DAF80060AD03554601D51643A0
:1011600000E096432E604D68DBF80060ED025D46BE
:1011700001D5164300E096432E604D68DEF800600E
:10118000AD02754601D5164300E096432E60641CFF
:101190000A681646E2407FF429AFBDE8F88F0000E8
:1011A0000004014000001110001002400000014046
:1011B00000080140000C01400010014000140140F3
:1011C00000180140001C01408068084000D0012048
:1011D00070470AB1016170470904FBE70148806864
:1011E000704700000800002002488168027811441E
:1011F0008160704708000020074810B5016841F081
:1012000010010160032000F067F8002000F006F8EC
:1012100000F024F8002010BD0020024070B50D4DF4
:1012200004464FF47A712878B1FBF0F00A49096856
:10123000B1FBF0F000F0E2FB48B9102C07D200221D
:101240002146501E00F028F800206C6070BD01207F
:1012500070BD000008000020140000200C4808B5F4
:10126000816941F001018161816901F00101009111
:10127000C16941F08051C161C06900F080500090A7
:101280000448416821F0E06141F00071416008BD0F
:101290000010024000000140F0B40E4B1B680C46E9
:1012A000C3F30223C3F10705042D00D90425191D3A
:1012B000072901D2002300E0DB1E012606FA05F112
:1012C000491E214099409E40761E16403143F0BC95
:1012D00000F0C2BE0CED00E0064900F0070208680D
:1012E0004FF6FF03184040EA0220034A104308600B
:1012F000704700000CED00E00000FA0510B52CA4CA
:1013000001461DCC86B08DE81D002DA02D4C006837
:101310000490002004292FD00BDC01292FD00229B2
:1013200028D100F061F96168C1F38131491C49009D
:101330001EE0082920D010291CD161682268D20142
:1013400018D5C1F38342C9031DF8020009D56168AD
:1013500004AAC1F34041515C1B4AB2FBF1F148437E
:1013600001E01A4948436168490203D4400003215F
:10137000B0FBF1F006B010BD00F046F9FAE7226AC2
:10138000C2F30121012903D1920701D5C803F1E776
:10139000022905D1626A920702D549F64040E9E781
:1013A0000329E7D121688903E4D54FF22440E1E71E
:1013B00002030405060708090A0B0C0D0E0F101096
:1013C000010200000010024000127A0000093D00F6
:1013D0002DE9F84305460078354CC00754D0E06944
:1013E0000026C00008D4E06940F08050E061E06968
:1013F000012600F0805000902E480168C90512D4E3
:101400000168804641F480710160FFF7E7FE0746FE
:1014100005E000BFFFF7E2FEC01B642823D8D8F820
:101420000000C005F6D5206A10F4407021D0A988CC
:1014300001F4407181421CD0206A1F49012220F42E
:1014400040700A6000220A602062C00711D0FFF7D6
:10145000C5FE074641F2883808E000BFFFF7BEFE30
:10146000C11B414502D90320BDE8F883206A8007EB
:10147000F4D5206A696820F44070084320621EB1E8
:10148000E06920F08050E0612878800705D5606829
:10149000A96820F44040084360602878C00605D55C
:1014A0006068696920F48000084360600020DBE721
:1014B0000010024000700040400442422DE9F04715
:1014C0000F46050061D0434E306800F00700B84277
:1014D00009D2306820F0070038433060306800F0EF
:1014E0000700B84251D128683B4C810712D540070C
:1014F00003D5606840F4E06060602878000703D599
:10150000606840F4605060606068A96820F0F00096
:10151000084360602878C00728D06868012810D088
:101520002168022810D0890700292EDA616821F08D
:10153000030101436160FFF751FE804641F28839A3
:101540000DE021688903EFE78901EDE7FFF746FE2B
:10155000A0EB0801494502D90320BDE8F087606887
:10156000696800F00C00B0EB810FEFD1306800F03B
:101570000700B8420BD9306820F0070038433060CC
:10158000306800F00700B84201D00120E5E7287874
:10159000400705D56068E96820F4E06008436060B2
:1015A0002878000706D56068296920F4605040EA71
:1015B000C100606000F028F86168084AC1F30311B7
:1015C000515CC8400649086006480068FFF726FEDF
:1015D0000020C2E700200240001002402C32000828
:1015E000140000200C0000200448054900684968E8
:1015F000044AC1F3C221515CC84070471400002066
:10160000001002403C32000812A185B00FC98DE8DD
:101610000F0014A0144A006804905168134801F0A8
:101620000C03042B10D0082B0ED1C1F38343C90344
:101630001DF803000AD5516804AAC1F34041515C6A
:101640000A4A5043B0FBF1F005B0704708494843DF
:10165000FAE7000002030405060708090A0B0C0D4F
:101660000E0F1010010200000010024000127A005C
:1016700000093D002DE9F84F040070D02078C04DDE
:10168000C00749D06868C0F38100012807D06868A6
:10169000C0F38100022809D16868C00306D5286814
:1016A000800339D560680028E7D035E06068B0F580
:1016B000803F0BD010B1B0F5A02F11D0286820F4D6
:1016C00080302860286820F4802002E0286840F4F8
:1016D00080302860606890B1FFF780FD06460AE020
:1016E000286840F480202860F0E700BFFFF776FD0F
:1016F000801B642873D828688003F7D50CE0FFF7B7
:101700006DFD064605E000BFFFF768FD801B6428FD
:10171000F0D828688003F7D420789A4E80074FF0DD
:1017200001094FF0000839D5686810F00C0F07D098
:101730006868C0F38100022809D16868C00306D434
:101740002868800714D52069012808D110E0206995
:10175000B0B1C6F80090FFF741FD074605E00AE189
:10176000FFF73CFDC01B0228C4D828688007F7D5C6
:101770002868616920F0F80040EAC10028600DE0A7
:10178000C6F80080FFF72AFD074604E0FFF726FDB4
:10179000C01B022823D828688007F7D420780007C8
:1017A0002CD57948A169D9B1C0F80090FFF716FD92
:1017B000074604E0FFF712FDC01B02280FD8686A35
:1017C0008007F7D571484FF4FA510068B0FBF1F08B
:1017D000009000BF0098411E0091FAD20EE080E018
:1017E000C0F80080FFF7FAFC074604E0FFF7F6FCBC
:1017F000C01B022875D8686A8007F7D42078400794
:1018000060D5E8690027C00008D4E86940F080503E
:10181000E861E869012700F0805000905C480168A9
:10182000C90513D40168834641F480710160FFF754
:10183000D5FC824606E000BFFFF7D0FCA0EB0A0013
:1018400064284ED8DBF80000C005F5D5E068012813
:101850000AD008B1052813D0286A20F001002862B8
:10186000286A20F0040002E0286A40F001002862A3
:10187000E06841F2883B98B1FFF7B0FC82460BE08C
:10188000286A40F004002862EEE700BFFFF7A6FCDC
:10189000A0EB0A0159455AD8286A8007F6D50CE012
:1018A000FFF79CFC824605E0FFF798FCA0EB0A01DD
:1018B00059454CD8286A8007F6D41FB1E86920F052
:1018C0008050E861E06988B36968C1F38101022949
:1018D00044D00228C6F8608004D0FFF77FFC04469D
:1018E00038E034E0FFF77AFC074604E0FFF776FCC7
:1018F000C01B02282BD828688001F7D4206AB0F5D5
:10190000803F05D16868A16820F400300843686012
:10191000D4E908010843696821F474110843686038
:10192000C6F86090FFF75AFC044606E025E000BFC9
:10193000FFF754FC001B022809D828688001F7D55E
:101940001BE000BFFFF74AFC001B022802D903205E
:10195000BDE8F88F28688001F4D40EE00128F7D0A4
:101960006868226A00F48031914204D1616A00F40F
:101970007010884201D00120EAE70020E8E700006B
:101980000010024000004242800442421400002045
:101990000070004070B515460E46040007D0A069DF
:1019A000B0F5807F03D094F8410010B107E001202A
:1019B00070BD002084F84000204600F01DF804F1BE
:1019C00008012068FEF7CEFF3146A2682068FEF7C6
:1019D000FDFFD4E901022946236BFEF7A5FFA168AC
:1019E000206850F8212042F0010240F82120012017
:1019F00084F84100002070BDFFF7B6BA10B5401E54
:101A0000B0F1807F01D3012010BD4FF0E024606170
:101A10000F21601700F020FB0020A061072020614B
:101A2000002010BDFEE70000044B4FF4805108B1C8
:101A3000002200E001221846FFF7CBBB0014014052
:101A400070B51D461446049E00F0CEF804FB05F068
:101A50003146BDE8704000F0A5B8000070B5203AEE
:101A6000D4B21023082200F0BFF82C20C106088051
:101A70000C490D4B01EB041500204FF6FF742A5C56
:101A80000021D60702D01F261E8000E01C80491CC2
:101A90005208C9B20829F4D3401CC0B21028EED3B2
:101AA00070BD00003C2C00080000026010B5144618
:101AB00001231A4600F098F82146BDE810400120A5
:101AC00000F070B82DE9FE4F161ACDE900104FF066
:101AD00000085D1A47464FF0FF30002E02DD4FF040
:101AE000010102E003D14FF000018B4602E0834682
:101AF000C6F10006002D02DD4FF0010002E003D127
:101B00004FF00000824602E08246C5F10005AE4279
:101B100001DD344600E02C46601C4FF000090290C5
:101B20001AE000BFDDE900100C9AFFF7BFFFB044D8
:101B30002F44A04505DD0198A8EB0408584480B265
:101B40000190A74204DD00983F1B504480B20090F2
:101B500009F101001FFA80F902998945E2DDBDE82B
:101B6000FE8F0000F0B516460D4604464FF4A077F0
:101B700014E000BF04F10800F02802D90024103559
:101B8000ADB205F11000B84201D90024254629461E
:101B90002046FFF763FF0834A4B2761C3278002A8F
:101BA000E8D1F0BD10B500222C23DC062380034BC6
:101BB00001E01980521C8242FBD310BD000002607C
:101BC00008B50120FFF730FF00F0EAF800F02CF82C
:101BD0004FF6FF70002100904FF4A073F0220846EA
:101BE000FFF72EFF08BD000070B54FF0C0452A2456
:101BF0002C800C4C060A2680C6B226801044401E5B
:101C0000020A2280C0B220802B202880080A20806F
:101C1000C8B22080C818401E010A2180C0B22080AE
:101C200070BD00000000026000B54FF0C041CF2041
:101C300008805948002202808122028030220280DE
:101C4000ED220A8064220280032202801222028096
:101C500081220280E8220A808522028010220280EE
:101C600078220280CB220A80392202802C22028034
:101C7000002202803422028002220280F7220A809F
:101C800020220280EA220A80002202800280B12201
:101C90000A80002202801B220280B6220A800A22C9
:101CA0000280A2220280C0220A8035220280C12244
:101CB0000A8011220280C5220A8045220280028009
:101CC000C7220A80A2220280F2220A800022028019
:101CD00026220A8001220280E0220A800F2202804E
:101CE00026220280242202800B2202800E22028001
:101CF0000922028054220280A82202804622028009
:101D00000C22028017220280092202800F22028008
:101D10000722028000220280E1220A800022028043
:101D2000192202801B2202800422028010220280DB
:101D3000072202802A220280472202803922028062
:101D40000322028006220280028030220280382292
:101D500002800F22028036220A80C82202802A22B4
:101D60000A800022028002800280EF2202802B2261
:101D70000A80002202800280012202803F2202802B
:101D80003A220A8055220280112008800348FEF77B
:101D9000C3FD2920088000BD00000260FCBF0200D6
:101DA00070B50A4C002202212046FFF712FA084DB6
:101DB0002846FEF7B1FD012202212046FFF709FA6D
:101DC0002846BDE87040FEF7A7BD0000001801409E
:101DD000FCBF02003EB500211148009101910F4A5D
:101DE0000291026001248160047301754FF4602246
:101DF0000461C2614160FEF7F1FE08B172B6FEE710
:101E00000E20CDE900040520029069460448FEF743
:101E100063FE002801D072B6FEE73EBD00240140FB
:101E20001800002000B587B01C216846FEF7B3F902
:101E300017484FF0204110220160164941600021EF
:101E40008160C160C0E904128161C1611302016255
:101E5000C0E90913C1620163416381630F20FF235D
:101E60000090CDE90103CDE903021120CDE9050180
:101E7000002269460648FFF78DFD08B172B6FEE7FD
:101E80000548C16941F48061C16107B000BD00002F
:101E900048000020040100A0000001402DE9F04F9F
:101EA00085B0002439480094019402940394816918
:101EB00041F010018161816901F010010491816993
:101EC00041F004018161816901F00401049181699B
:101ED00041F040018161816901F040010491816913
:101EE00041F020018161816901F020010491816943
:101EF00041F0080181618069DFF8949000F00800EA
:101F00004FF480570490002239464846FFF761F9A4
:101F1000DFF880A04FF40078012241465046FFF7D9
:101F200058F9DFF874B0002202215846FFF751F942
:101F3000780002268DE8510069461848FFF748F8F6
:101F40000125CDE90054694615480296FFF740F88F
:101F5000CDE900750327CDE9024769464846FFF7FA
:101F600037F8CDF800800397CDE901546946504613
:101F7000FFF72EF803970096CDE9015469465846BD
:101F8000FFF726F805B0BDE8F08F00000010024012
:101F900000140140000C01400018014000100140F5
:101FA00000080140FEE7FEE770477047FFF71CB9E5
:101FB00030B595B028216846FEF7EDF814210AA83F
:101FC000FEF7E9F818210FA8FEF7E5F8012108044B
:101FD000CDE900100025029502240491CDE90740C7
:101FE0004FF4A01009906846FFF744FB08B172B6A1
:101FF000FEE70AA90F2081E831004FF48060CDE9A7
:102000000D0502210AA8FFF759FA08B172B6FEE7DA
:102010004FF4804011900F940FA8FFF7D9F90028D2
:1020200001D072B6FEE715B030BD7047FEE7000084
:102030000FB4084B10B504A902AA039800F0EEF8FB
:10204000044602A9002000F080FC204610BC5DF888
:1020500014FB00004B2900080907090E002804DBC7
:1020600000F1E02080F80014704700F00F0000F14C
:10207000E02080F8141D704702E008C8121F08C154
:10208000002AFAD170477047002001E001C1121FF9
:10209000002AFBD1704700002DE9FF5F82B00021CC
:1020A000DDE90430020DDDF840B0034318D044F6FA
:1020B0001050A2F2FF3242431514119801281FD08C
:1020C000A5EB0B00401C5FEA000A4FF000064E4FE4
:1020D000DFF83891B046504615D5CAF1000413E038
:1020E000119801244AA3012801D16FEA0B0102983B
:1020F000119AC0E90031C0E9024206B0BDE8F09F84
:10210000CBF10000DFE704460021404A491842EBCA
:102110000450CDE9001012E0E00707D032463B46FC
:1021200040464946FEF71BF98046894632463B4603
:1021300010461946FEF713F906460F466410002CA8
:10214000EAD1DDE90401DDE90023BAF1000F06DA86
:10215000FEF705F942464B46FEF701F905E0FEF7AA
:1021600070F942464B46FEF76CF904460E460022D3
:10217000284BFEF747FB03D84FF0FF30014607E03E
:102180000022254B20463146FEF742F8FEF722FB9F
:10219000102409E0002C0ADB0A220023FEF734FA9F
:1021A000039B30321A55641E50EA0102F2D1641CBE
:1021B000039AC4F111031444119A012A03D0012295
:1021C00008430DD10AE0084304D000204FF0110B62
:1021D000119072E7A3EB0B056D1E0DE05B4504DD6E
:1021E0004FF0000205F1010504E003DA4FF00002B0
:1021F000A5F10105002AECD002981199C0E902313D
:10220000C0E9004579E70000000014400000F03FFD
:10221000300000000000F0430000E03F2DE9FF4FD8
:1022200095B09B468946064600250FE2252877D1C2
:1022300000242746F84A0121059400E0044316F8DB
:10224000013F203B01FA03F01042F7D130782A28F1
:1022500011D06FF02F033078A0F13002092A16D880
:10226000059A44F0020402EB820203EB420210449E
:10227000761C0590EFE759F8042B0592002A03DA43
:10228000504244F40054059044F00204761C307827
:102290002E2816D116F8010F44F004042A280DD078
:1022A0006FF02F023078A0F13003092B09D807EB2B
:1022B000870302EB4303C718761CF3E759F8047B46
:1022C000761C30786C280FD006DC4C2817D0682894
:1022D0000DD06A2814D104E0742810D07A280FD1C8
:1022E0000DE044F400140AE044F4801401E044F4E6
:1022F00040147278824202D104F58014761C761C58
:10230000307866280BD013DC582877D009DC0028F9
:1023100075D04528F6D04628F4D047281AD19DE13B
:1023200018E0632835D0642879D0652812D195E16A
:10233000702873D008DC6728F1D069286FD06E2828
:102340000DD06F2806D1B5E073282CD0752875D034
:10235000782874D05A46179990476D1C75E1C4F3DC
:102360000250022809D003280DD0D9F80010042803
:102370000DD00D6009F1040967E1D9F80010EA17E2
:10238000C1E90052F6E7D9F800100D80F2E70D70B0
:10239000F0E719F8041B8DF8001000208DF80100FB
:1023A000EA46012003E059F804AB4FF0FF30610723
:1023B0004FF0000102D40DE008F101018846B94256
:1023C0000FDA8045F8DB1AF808100029F4D108E08C
:1023D00008F1010188468142FADB1AF80810002949
:1023E000F6D105985B46A0EB080721463846179AB8
:1023F00000F094FA284400EB080507E04DE029E1DD
:102400000DE01AF8010B5A4617999047B8F10108E8
:10241000F7D25B4621463846179A13E142E00A227A
:102420000092C4F302524FF0000A022A08D059F871
:1024300004CB032A4FEAEC710AD00DE029E02AE030
:1024400009F1070121F00702F2E802C1914609E013
:102450000FFA8CFC4FEAEC71042A03D14FFA8CFC82
:102460004FEAEC71002907DA0A460021DCF1000C82
:1024700061EB02012D2202E0220504D52B228DF80A
:102480000420012203E0E20701D02022F7E7904672
:1024900059E00A2102E010220DE010214FF0000A5D
:1024A00000910BE010224FF0000A44F004040827CA
:1024B000009203E008224FF0000A0092C4F3025297
:1024C000022A05D059F804CB0021032A08D009E0DC
:1024D00009F1070121F00702F2E802C1914605E087
:1024E0001FFA8CFC042A01D10CF0FF0C4FF00008FD
:1024F000220728D5702806D0009B83F0100353EAEA
:102500000A0305D00EE040228DF80420012208E0E5
:102510005CEA010206D030228DF804208DF8050017
:1025200002229046009B83F0080353EA0A030AD173
:102530005CEA010201D1620705D530228DF8042042
:102540004FF001087F1E582804D034A003900EA835
:1025500002900DE036A0F9E753466046009AFEF778
:1025600053F884460398825C0298401E02900270E1
:102570005CEA0100F0D1029806A9081A00F1200ACD
:10258000600702D524F4803400E00127574502DDBE
:10259000A7EB0A0000E0002000EB0A01009005987C
:1025A0004144401A0590E00306D45B462146179A41
:1025B000059800F0B3F90544002706E001A85A4643
:1025C000C05D179990476D1C7F1C4745F6DBE00303
:1025D0000CD55B462146179A059800F09FF90544F3
:1025E00004E030205A46179990476D1C0099481E08
:1025F00000900029F5DC08E0029802995A4600781C
:10260000491C0291179990476D1CBAF10001AAF17B
:10261000010AF1DC65E100000928010030313233A4
:10262000343536373839616263646566000000000E
:1026300030313233343536373839414243444546F8
:102640000000000000F058F90544761C307800289E
:102650007FF4ECAD19B02846BDE8F08F620700D4D6
:10266000062709F1070222F0070CFCE80223E146E5
:1026700003F000485FEA080C02D00FF2702C0DE066
:102680005FEA045C02D50FF2682C07E05FEAC47CC5
:1026900002D00FF2602C01E0AFF2700C4FF0FF3867
:1026A00023F00043CDF850C065280CD006DC452847
:1026B00009D046281DD047283DD13DE0662818D0D6
:1026C00067287ED138E00021112F01DB112000E0C6
:1026D000781CCDE9000106A90EA8FFF7DDFCDDE9B5
:1026E0000F010E9A03910021009207F1010A049153
:1026F0004DE04FF000400097CDE9011006A90EA86B
:10270000FFF7CAFCDDE90F0203920E9B119900222C
:10271000DDF80CA00093049211B9791C00EB010ABA
:10272000B7EB0A0004D4C0F1FF3007F1010A0490AE
:10273000AAEB0700019044E0012F00DA01270021F5
:10274000112F01DD112000E03846CDE9000106A976
:102750000EA8FFF7A1FCDDE90F010E9A03910021FD
:1027600004910092BA4621070CD40399514500DA2E
:102770008A46BAF1010F05DD009AAAF10101515C08
:10278000302908D0B84202DA10F1040F06DA01212C
:10279000CDE9011015E0AAF10101E9E7002805DC07
:1027A000049901440491AAEB000102E0411C514547
:1027B00000DD8A460499401A401C01904FF0004009
:1027C0000290200704D40198504501DBCDF8048025
:1027D00000208DF84F0002980DF14F07B0F1004F27
:1027E00025D02B200E9002984FF0020800280CDA1A
:1027F000404202902D200E9007E00A210298FDF73A
:10280000EDFE3031029007F8011DB8F10001A8F18A
:102810000108F2DC02980028EFD1791E0E980870AA
:10282000307800F0200040F0450007F8020D12A8B3
:10283000C01B00F107081498007800B1012000EBDC
:102840000A01019801EBE07105984144401A401ECD
:102850000590E00306D45B462146179A059800F0E0
:102860005DF805441498007818B15A4617999047B6
:102870006D1CE00324D55B462146179A059800F0AD
:102880004DF805441CE00498002807DBDDE903014E
:10289000884203DD0098405C179901E017993020C9
:1028A0005A469047049805F10105401C0490019890
:1028B000401E019004D12E205A46179990476D1C56
:1028C000BAF10001AAF1010ADDDC05E017F8010BFD
:1028D0005A46179990476D1CB8F10001A8F10108FC
:1028E000F4DC5B462146179A0598ABE62D00000004
:1028F0002B000000200000002DE9F04104460025D7
:102900001E461746880404D405E039462020B04707
:102910006D1C641EF9D52846BDE8F0812DE9F04113
:10292000044600251E469046C80301D5302700E026
:102930002027880404D505E041463846B0476D1C81
:10294000641EF9D52846BDE8F0810A68531C0B6067
:10295000107070470321401C90FBF1F201FB120044
:102960007047401C00EBD07121F00101401A704704
:10297000FEF742FCFFF71CFBFFF790FAFFF752FA55
:10298000FFF728FAFFF71CF92D48FEF741F82C480D
:10299000FEF778FA0024192025464FF47A7BFDF7DC
:1029A000BFFDDFF8A0A080464FF4007959462448C7
:1029B000FEF7D0F92248FEF70DF9FDF7BAFD002227
:1029C000214BFDF73EFDFDF7EDFD014640462B4650
:1029D000224600F069F826462F4601211B48FEF7E3
:1029E000F3FB012807D04FF400511948FEF7ECFB28
:1029F000012811D019E02046FFF7ACFF0446022859
:102A000008D0012249465046FEF7E3FBB4420CD001
:102A1000022008E00022F5E72846FFF7A2FF05465E
:102A2000B84202D0032000F015F8FA20FEF78AFA27
:102A3000002000F00FF8012000F00CF8B6E70000CD
:102A400018000020000C014000FEAF4000080140CB
:102A50000010014008B54FF6FF7160B1012810D099
:102A6000022814D00328009117D0F02200214FF43F
:102A7000A073084615E01E2300910A211A46AA20D9
:102A80000FE000910E23C7223321152009E00091A9
:102A90000323CF227921122003E002238C22BA21C2
:102AA0003020FEF7CDFF08BD2DE9F0418EB09846ED
:102AB00017460D46FDF763FD02460B4649A101A8E6
:102AC000FFF7B6FA48A20A214120FFF74BF801AA06
:102AD0000A21AA20FFF746F847A21E215A20FFF735
:102AE00041F81F243223DC22194614200094FEF7FB
:102AF000E9FF4123DC22194614200094FEF7E2FF8F
:102B000014224123322110460094FEF7DBFFDC2221
:102B10004123322110460094FEF7D4FF394928465C
:102B2000FDF744FBFDF712FD002500F1140600BF80
:102B300005F1320083B281B2B2B214200094FEF7E4
:102B4000C1FF6D1C0F2DF3DB2FA25A214620FFF78A
:102B500009F831A269211420FFF704F82FA2692196
:102B60006420FEF7FFFF2FA26921AF20FEF7FAFFD6
:102B700027B1012F08D0022F0CD012E079232B228D
:102B80001946122000940AE07A2384221946622012
:102B9000009404E07B23E0221946AD200094FEF768
:102BA00091FF22A296215020FEF7DCFF1AA2AA2153
:102BB0003220FEF7D7FFAA211FA20846FEF7D2FF58
:102BC000B8F1000F009408D0BB231A461946A8207C
:102BD000FEF778FF0EB0BDE8F081BA23492219460E
:102BE0003020F5E725670000526F6F6D2054656D4A
:102BF0002843293A20000000537065656428252980
:102C000000000000000048434F7065726174696FF6
:102C10006E204D6F646500004F6666004175746FED
:102C2000000000004D616E75616C000053696C65B9
:102C30006E74204D6F6465004F6E00000000000050
:102C4000000000000000000000000000000000186C
:102C50003C3C3C18180018180000000000000066FA
:102C60006666000000000000000000000000006C2C
:102C70006CFE6C6C6CFE6C6C000000000018183C64
:102C800066060C183060663C1818000000000E1B29
:102C90005B6E30180C76DAD8700000000000001C63
:102CA00036361C06F66666DC0000000000000018E0
:102CB00018180000000000000000000000000030B4
:102CC00018180C0C0C0C0C18183000000000000C2C
:102CD0001818303030303018180C00000000000098
:102CE000006C38FE386C000000000000000000009E
:102CF0000018187E181800000000000000000000F6
:102D0000000000000000383830180000000000000B
:102D10000000007E00000000000000000000000035
:102D200000000000000038380000000000000060D3
:102D300060303018180C0C06060000000000007807
:102D4000CCECECCCDCDCCC780000000000000030E7
:102D5000383E303030303030000000000000003CA1
:102D600066666030180C067E000000000000003C23
:102D7000666660386066663C000000000000000C7B
:102D80000C6C6C6C66FE6060000000000000007E51
:102D90000606063E6060301E00000000000000389D
:102DA000180C3E666666663C000000000000007E6F
:102DB00060303018180C0C0C000000000000003CC3
:102DC00066666E3C7666663C000000000000003CD3
:102DD000666666667C30181C00000000000000007B
:102DE0000038380000003838000000000000000003
:102DF000003838000000383830180000000000604B
:102E000030180C060C1830600000000000000000B4
:102E100000007E007E0000000000000000000006B0
:102E20000C18306030180C06000000000000003C58
:102E30006666301818001818000000000000007EB8
:102E4000C3C3F3DBDBF303FE000000000000001847
:102E50003C6666667E666666000000000000003E16
:102E60006666663E6666663E000000000000003C46
:102E7000666606060666663C000000000000001E4E
:102E8000366666666666361E000000000000007E3C
:102E90000606063E0606067E000000000000007ED4
:102EA0000606063E06060606000000000000003C7E
:102EB000666606067666667C000000000000006616
:102EC0006666667E66666666000000000000003C7E
:102ED000181818181818183C0000000000000060AE
:102EE000606060606066663C000000000000006694
:102EF0006636361E363666660000000000000006A4
:102F0000060606060606067E00000000000000C653
:102F1000C6EED6D6D6C6C6C600000000000000C663
:102F2000C6CEDEF6E6C6C6C6000000000000003CC5
:102F3000666666666666663C000000000000003E4D
:102F40006666663E06060606000000000000003CBD
:102F5000666666666666663C306000000000003E9D
:102F60006666663E36666666000000000000003C4D
:102F700066060C183060663C000000000000007E11
:102F8000181818181818181800000000000000661B
:102F9000666666666666663C0000000000000066C5
:102FA0006666666666663C1800000000000000C6A3
:102FB000C6C6D6D6D66C6C6C000000000000006659
:102FC000662C181834666666000000000000006673
:102FD0006666663C18181818000000000000007EA5
:102FE000606030180C06067E000000000000003C07
:102FF0000C0C0C0C0C0C0C0C0C0C3C000000000617
:10300000060C0C1818303060600000000000003C16
:10301000303030303030303030303C0000183C66DA
:1030200000000000000000000000000000000000A0
:1030300000000000000000000000FF00001C18302D
:103040000000000000000000000000000000000080
:10305000003C60607C66667C0000000000000006AA
:10306000063E66666666663E0000000000000000E0
:10307000003C66060606663C00000000000000609A
:10308000607C66666666667C0000000000000000EA
:10309000003C66667E06063C0000000000000078EA
:1030A0000C0C0C7E0C0C0C0C00000000000000004E
:1030B000007C66666666667C60603E000000000616
:1030C000063E666666666666000000000000181828
:1030D000001E18181818187E00000000000030307C
:1030E000003C30303030303030301E000000000600
:1030F000066666361E366666000000000000001E8A
:10310000181818181818187E000000000000000099
:10311000007ED6D6D6D6D6C600000000000000003D
:10312000003E6666666666660000000000000000FD
:10313000003C66666666663C000000000000000019
:10314000003E66666666663E0606060000000000F3
:10315000007C66666666667C606060000000000059
:103160000066760E0606060600000000000000005D
:10317000007C06063C60603E000000000000000C81
:103180000C7E0C0C0C0C0C78000000000000000001
:10319000006666666666667C00000000000000004F
:1031A0000066666666663C180000000000000000CD
:1031B00000C6D6D6D6D66C6C000000000000000019
:1031C0000066663C183C66660000000000000000D7
:1031D000006666666666663C30180F0000000000F8
:1031E000007E6030180C067E0000000000000030F9
:1031F0001818180C060C18181830000000000018D9
:103200001818181818181818181818000000000CAA
:103210001818183060301818180C00000000008EC4
:10322000DB71000000000000000000000000000052
:103230000000000001020304060708090000000066
:10324000010203046432000800000020180000009E
:10325000782000087C320008180000207804000064
:1032600088200008000000000000000001000000AD
:0C32700010000000000000000024F4002A
:0400000508000131BD
:00000001FF
